{
  "contractName": "Project",
  "abi": [
    {
      "constant": true,
      "inputs": [
        {
          "name": "",
          "type": "bytes32"
        }
      ],
      "name": "parameters",
      "outputs": [
        {
          "name": "precReq",
          "type": "uint256"
        },
        {
          "name": "voteOnBehalf",
          "type": "address"
        }
      ],
      "payable": false,
      "stateMutability": "view",
      "type": "function",
      "signature": "0x02506804"
    },
    {
      "constant": true,
      "inputs": [
        {
          "name": "_proposalId",
          "type": "bytes32"
        },
        {
          "name": "_voter",
          "type": "address"
        }
      ],
      "name": "voteInfo",
      "outputs": [
        {
          "name": "",
          "type": "uint256"
        },
        {
          "name": "",
          "type": "uint256"
        }
      ],
      "payable": false,
      "stateMutability": "view",
      "type": "function",
      "signature": "0x119ce91b"
    },
    {
      "constant": true,
      "inputs": [],
      "name": "proposalsCnt",
      "outputs": [
        {
          "name": "",
          "type": "uint256"
        }
      ],
      "payable": false,
      "stateMutability": "view",
      "type": "function",
      "signature": "0x21b4b3dc"
    },
    {
      "constant": false,
      "inputs": [
        {
          "name": "_precReq",
          "type": "uint256"
        },
        {
          "name": "_voteOnBehalf",
          "type": "address"
        }
      ],
      "name": "setParameters",
      "outputs": [
        {
          "name": "",
          "type": "bytes32"
        }
      ],
      "payable": false,
      "stateMutability": "nonpayable",
      "type": "function",
      "signature": "0x23d840f5"
    },
    {
      "constant": true,
      "inputs": [
        {
          "name": "_precReq",
          "type": "uint256"
        },
        {
          "name": "_voteOnBehalf",
          "type": "address"
        }
      ],
      "name": "getParametersHash",
      "outputs": [
        {
          "name": "",
          "type": "bytes32"
        }
      ],
      "payable": false,
      "stateMutability": "pure",
      "type": "function",
      "signature": "0x289647e4"
    },
    {
      "constant": true,
      "inputs": [
        {
          "name": "",
          "type": "bytes32"
        }
      ],
      "name": "proposals",
      "outputs": [
        {
          "name": "organizationId",
          "type": "bytes32"
        },
        {
          "name": "open",
          "type": "bool"
        },
        {
          "name": "callbacks",
          "type": "address"
        },
        {
          "name": "numOfChoices",
          "type": "uint256"
        },
        {
          "name": "paramsHash",
          "type": "bytes32"
        },
        {
          "name": "totalVotes",
          "type": "uint256"
        }
      ],
      "payable": false,
      "stateMutability": "view",
      "type": "function",
      "signature": "0x32ed5b12"
    },
    {
      "constant": false,
      "inputs": [
        {
          "name": "_proposalId",
          "type": "bytes32"
        },
        {
          "name": "_vote",
          "type": "uint256"
        },
        {
          "name": "_amount",
          "type": "uint256"
        },
        {
          "name": "_voter",
          "type": "address"
        }
      ],
      "name": "vote",
      "outputs": [
        {
          "name": "",
          "type": "bool"
        }
      ],
      "payable": false,
      "stateMutability": "nonpayable",
      "type": "function",
      "signature": "0x359afa49"
    },
    {
      "constant": true,
      "inputs": [],
      "name": "getAllowedRangeOfChoices",
      "outputs": [
        {
          "name": "min",
          "type": "uint256"
        },
        {
          "name": "max",
          "type": "uint256"
        }
      ],
      "payable": false,
      "stateMutability": "pure",
      "type": "function",
      "signature": "0x5142bc1e"
    },
    {
      "constant": true,
      "inputs": [],
      "name": "isAbstainAllow",
      "outputs": [
        {
          "name": "",
          "type": "bool"
        }
      ],
      "payable": false,
      "stateMutability": "pure",
      "type": "function",
      "signature": "0x51d997b2"
    },
    {
      "constant": true,
      "inputs": [],
      "name": "purpose",
      "outputs": [
        {
          "name": "",
          "type": "string"
        }
      ],
      "payable": false,
      "stateMutability": "view",
      "type": "function",
      "signature": "0x70740aab"
    },
    {
      "constant": false,
      "inputs": [
        {
          "name": "_numOfChoices",
          "type": "uint256"
        },
        {
          "name": "_paramsHash",
          "type": "bytes32"
        },
        {
          "name": "",
          "type": "address"
        },
        {
          "name": "_organization",
          "type": "address"
        }
      ],
      "name": "propose",
      "outputs": [
        {
          "name": "",
          "type": "bytes32"
        }
      ],
      "payable": false,
      "stateMutability": "nonpayable",
      "type": "function",
      "signature": "0x88737b5e"
    },
    {
      "constant": true,
      "inputs": [],
      "name": "MAX_NUM_OF_CHOICES",
      "outputs": [
        {
          "name": "",
          "type": "uint256"
        }
      ],
      "payable": false,
      "stateMutability": "view",
      "type": "function",
      "signature": "0x8d22651e"
    },
    {
      "constant": false,
      "inputs": [
        {
          "name": "_proposalId",
          "type": "bytes32"
        }
      ],
      "name": "cancelVote",
      "outputs": [],
      "payable": false,
      "stateMutability": "nonpayable",
      "type": "function",
      "signature": "0x9525c0cc"
    },
    {
      "constant": true,
      "inputs": [],
      "name": "initiated",
      "outputs": [
        {
          "name": "",
          "type": "bool"
        }
      ],
      "payable": false,
      "stateMutability": "view",
      "type": "function",
      "signature": "0x9f118536"
    },
    {
      "constant": true,
      "inputs": [
        {
          "name": "_proposalId",
          "type": "bytes32"
        }
      ],
      "name": "getNumberOfChoices",
      "outputs": [
        {
          "name": "",
          "type": "uint256"
        }
      ],
      "payable": false,
      "stateMutability": "view",
      "type": "function",
      "signature": "0xa003651d"
    },
    {
      "constant": true,
      "inputs": [],
      "name": "githubRepo",
      "outputs": [
        {
          "name": "",
          "type": "string"
        }
      ],
      "payable": false,
      "stateMutability": "view",
      "type": "function",
      "signature": "0xa7612edf"
    },
    {
      "constant": true,
      "inputs": [
        {
          "name": "_proposalId",
          "type": "bytes32"
        },
        {
          "name": "_choice",
          "type": "uint256"
        }
      ],
      "name": "voteStatus",
      "outputs": [
        {
          "name": "",
          "type": "uint256"
        }
      ],
      "payable": false,
      "stateMutability": "view",
      "type": "function",
      "signature": "0xb4512913"
    },
    {
      "constant": true,
      "inputs": [
        {
          "name": "",
          "type": "bytes32"
        }
      ],
      "name": "organizations",
      "outputs": [
        {
          "name": "",
          "type": "address"
        }
      ],
      "payable": false,
      "stateMutability": "view",
      "type": "function",
      "signature": "0xba51b14e"
    },
    {
      "constant": true,
      "inputs": [
        {
          "name": "_proposalId",
          "type": "bytes32"
        }
      ],
      "name": "isVotable",
      "outputs": [
        {
          "name": "",
          "type": "bool"
        }
      ],
      "payable": false,
      "stateMutability": "view",
      "type": "function",
      "signature": "0xc0835106"
    },
    {
      "constant": false,
      "inputs": [
        {
          "name": "_proposalId",
          "type": "bytes32"
        }
      ],
      "name": "execute",
      "outputs": [
        {
          "name": "",
          "type": "bool"
        }
      ],
      "payable": false,
      "stateMutability": "nonpayable",
      "type": "function",
      "signature": "0xe751f271"
    },
    {
      "inputs": [
        {
          "name": "_githubRepo",
          "type": "string"
        },
        {
          "name": "_adminRole",
          "type": "address"
        },
        {
          "name": "_adminName",
          "type": "string"
        },
        {
          "name": "_adminGithubUsername",
          "type": "string"
        },
        {
          "name": "_purpose",
          "type": "string"
        },
        {
          "name": "_voteInterface",
          "type": "address"
        },
        {
          "name": "_votePercentage",
          "type": "uint256"
        },
        {
          "name": "_projectNum",
          "type": "uint256"
        }
      ],
      "payable": false,
      "stateMutability": "nonpayable",
      "type": "constructor",
      "signature": "constructor"
    },
    {
      "anonymous": false,
      "inputs": [
        {
          "indexed": false,
          "name": "taskId_",
          "type": "bytes32"
        }
      ],
      "name": "taskProposed",
      "type": "event",
      "signature": "0x31038b33714cfb183863b924f0c8645cbb924d3e4817eb07bcb47da1d20a8130"
    },
    {
      "anonymous": false,
      "inputs": [
        {
          "indexed": true,
          "name": "_proposalId",
          "type": "bytes32"
        },
        {
          "indexed": false,
          "name": "_isProxyVote",
          "type": "bool"
        }
      ],
      "name": "AVVoteProposal",
      "type": "event",
      "signature": "0xe715e19c865cb724f3c292cc2fffc24d9cdd398e179fb366f008cc73028e1c52"
    },
    {
      "anonymous": false,
      "inputs": [
        {
          "indexed": true,
          "name": "_proposalId",
          "type": "bytes32"
        },
        {
          "indexed": true,
          "name": "_organization",
          "type": "address"
        },
        {
          "indexed": false,
          "name": "_numOfChoices",
          "type": "uint256"
        },
        {
          "indexed": false,
          "name": "_proposer",
          "type": "address"
        },
        {
          "indexed": false,
          "name": "_paramsHash",
          "type": "bytes32"
        }
      ],
      "name": "NewProposal",
      "type": "event",
      "signature": "0x75b4ff136cc5de5957574c797de3334eb1c141271922b825eb071e0487ba2c5c"
    },
    {
      "anonymous": false,
      "inputs": [
        {
          "indexed": true,
          "name": "_proposalId",
          "type": "bytes32"
        },
        {
          "indexed": true,
          "name": "_organization",
          "type": "address"
        },
        {
          "indexed": false,
          "name": "_decision",
          "type": "uint256"
        },
        {
          "indexed": false,
          "name": "_totalReputation",
          "type": "uint256"
        }
      ],
      "name": "ExecuteProposal",
      "type": "event",
      "signature": "0x37471b9c9d295ffb1309ad070b8964700bfb7b555e8e8292d0b6cbc7dba35d10"
    },
    {
      "anonymous": false,
      "inputs": [
        {
          "indexed": true,
          "name": "_proposalId",
          "type": "bytes32"
        },
        {
          "indexed": true,
          "name": "_organization",
          "type": "address"
        },
        {
          "indexed": true,
          "name": "_voter",
          "type": "address"
        },
        {
          "indexed": false,
          "name": "_vote",
          "type": "uint256"
        },
        {
          "indexed": false,
          "name": "_reputation",
          "type": "uint256"
        }
      ],
      "name": "VoteProposal",
      "type": "event",
      "signature": "0x066c061a3792cb3eb64a441a928655fcbafb4a54b49725fe9cd2951df5e7189e"
    },
    {
      "anonymous": false,
      "inputs": [
        {
          "indexed": true,
          "name": "_proposalId",
          "type": "bytes32"
        },
        {
          "indexed": true,
          "name": "_organization",
          "type": "address"
        }
      ],
      "name": "CancelProposal",
      "type": "event",
      "signature": "0x2eb3e89618ae3f1716cf6615be7ce4bbafed3578d8bc1de99897063e9db6a9f6"
    },
    {
      "anonymous": false,
      "inputs": [
        {
          "indexed": true,
          "name": "_proposalId",
          "type": "bytes32"
        },
        {
          "indexed": true,
          "name": "_organization",
          "type": "address"
        },
        {
          "indexed": true,
          "name": "_voter",
          "type": "address"
        }
      ],
      "name": "CancelVoting",
      "type": "event",
      "signature": "0x0ecab23267930de581498fac1af19a95c888ec6583921ee9c47473e16245d3c8"
    },
    {
      "constant": false,
      "inputs": [],
      "name": "statusCheck",
      "outputs": [
        {
          "name": "yes",
          "type": "bool"
        }
      ],
      "payable": false,
      "stateMutability": "nonpayable",
      "type": "function",
      "signature": "0x1e5f246d"
    },
    {
      "constant": false,
      "inputs": [
        {
          "name": "_owner",
          "type": "address"
        },
        {
          "name": "_duration",
          "type": "uint256"
        },
        {
          "name": "_requirementsGitCommit",
          "type": "string"
        },
        {
          "name": "_budget",
          "type": "uint256"
        },
        {
          "name": "_reward",
          "type": "uint256"
        },
        {
          "name": "_votePercentage",
          "type": "uint256"
        }
      ],
      "name": "proposeTask",
      "outputs": [
        {
          "name": "",
          "type": "bytes32"
        }
      ],
      "payable": false,
      "stateMutability": "nonpayable",
      "type": "function",
      "signature": "0x83233292"
    },
    {
      "constant": false,
      "inputs": [
        {
          "name": "_taskId",
          "type": "bytes32"
        },
        {
          "name": "_evidenceGitCommit",
          "type": "string"
        }
      ],
      "name": "submitEvidence",
      "outputs": [
        {
          "name": "",
          "type": "bytes32"
        }
      ],
      "payable": false,
      "stateMutability": "nonpayable",
      "type": "function",
      "signature": "0xf48a0b31"
    },
    {
      "constant": false,
      "inputs": [
        {
          "name": "_taskId",
          "type": "bytes32"
        },
        {
          "name": "_vote",
          "type": "uint256"
        }
      ],
      "name": "voteOnProposedTask",
      "outputs": [],
      "payable": false,
      "stateMutability": "nonpayable",
      "type": "function",
      "signature": "0x06595319"
    },
    {
      "constant": false,
      "inputs": [
        {
          "name": "_evidenceVoteId",
          "type": "bytes32"
        },
        {
          "name": "_vote",
          "type": "uint256"
        }
      ],
      "name": "voteOnEvidence",
      "outputs": [],
      "payable": false,
      "stateMutability": "nonpayable",
      "type": "function",
      "signature": "0x27199d6c"
    }
  ],
  "bytecode": "0x60806040523480156200001157600080fd5b5060405162003bc238038062003bc283398101806040526101008110156200003857600080fd5b8101908080516401000000008111156200005157600080fd5b828101905060208101848111156200006857600080fd5b81518560018202830111640100000000821117156200008657600080fd5b5050929190602001805190602001909291908051640100000000811115620000ad57600080fd5b82810190506020810184811115620000c457600080fd5b8151856001820283011164010000000082111715620000e257600080fd5b50509291906020018051640100000000811115620000ff57600080fd5b828101905060208101848111156200011657600080fd5b81518560018202830111640100000000821117156200013457600080fd5b505092919060200180516401000000008111156200015157600080fd5b828101905060208101848111156200016857600080fd5b81518560018202830111640100000000821117156200018657600080fd5b5050929190602001805190602001909291908051906020019092919080519060200190929190505050620001b962000347565b32816000019073ffffffffffffffffffffffffffffffffffffffff16908173ffffffffffffffffffffffffffffffffffffffff168152505086816020018190525085816040018190525080600f60008a73ffffffffffffffffffffffffffffffffffffffff1673ffffffffffffffffffffffffffffffffffffffff16815260200190815260200160002060008201518160000160006101000a81548173ffffffffffffffffffffffffffffffffffffffff021916908373ffffffffffffffffffffffffffffffffffffffff1602179055506020820151816001019080519060200190620002a892919062000396565b506040820151816002019080519060200190620002c792919062000396565b506060820151816003015560808201518160040160006101000a81548160ff02191690831515021790555060a082015181600501559050508860079080519060200190620003179291906200041d565b508460089080519060200190620003309291906200041d565b5081600b81905550505050505050505050620004cc565b60c060405190810160405280600073ffffffffffffffffffffffffffffffffffffffff168152602001606081526020016060815260200160008152602001600015158152602001600081525090565b828054600181600116156101000203166002900490600052602060002090601f016020900481019282601f10620003d957805160ff19168380011785556200040a565b828001600101855582156200040a579182015b8281111562000409578251825591602001919060010190620003ec565b5b509050620004199190620004a4565b5090565b828054600181600116156101000203166002900490600052602060002090601f016020900481019282601f106200046057805160ff191683800117855562000491565b8280016001018555821562000491579182015b828111156200049057825182559160200191906001019062000473565b5b509050620004a09190620004a4565b5090565b620004c991905b80821115620004c5576000816000905550600101620004ab565b5090565b90565b6136e680620004dc6000396000f3fe608060405234801561001057600080fd5b5060043610610190576000357c01000000000000000000000000000000000000000000000000000000009004806370740aab116100fb578063a003651d116100b4578063ba51b14e1161008e578063ba51b14e146108e2578063c083510614610950578063e751f27114610996578063f48a0b31146109dc57610190565b8063a003651d146107d1578063a7612edf14610813578063b45129131461089657610190565b806370740aab1461053d57806383233292146105c057806388737b5e146106d75780638d22651e146107635780639525c0cc146107815780639f118536146107af57610190565b806327199d6c1161014d57806327199d6c1461034d578063289647e41461038557806332ed5b12146103e7578063359afa491461047c5780635142bc1e146104f657806351d997b21461051b57610190565b80630250680414610195578063065953191461020a578063119ce91b146102425780631e5f246d146102ab57806321b4b3dc146102cd57806323d840f5146102eb575b600080fd5b6101c1600480360360208110156101ab57600080fd5b8101908080359060200190929190505050610ab5565b604051808381526020018273ffffffffffffffffffffffffffffffffffffffff1673ffffffffffffffffffffffffffffffffffffffff1681526020019250505060405180910390f35b6102406004803603604081101561022057600080fd5b810190808035906020019092919080359060200190929190505050610af9565b005b61028e6004803603604081101561025857600080fd5b8101908080359060200190929190803573ffffffffffffffffffffffffffffffffffffffff16906020019092919050505061108e565b604051808381526020018281526020019250505060405180910390f35b6102b3611123565b604051808215151515815260200191505060405180910390f35b6102d561112c565b6040518082815260200191505060405180910390f35b6103376004803603604081101561030157600080fd5b8101908080359060200190929190803573ffffffffffffffffffffffffffffffffffffffff169060200190929190505050611132565b6040518082815260200191505060405180910390f35b6103836004803603604081101561036357600080fd5b8101908080359060200190929190803590602001909291905050506111f9565b005b6103d16004803603604081101561039b57600080fd5b8101908080359060200190929190803573ffffffffffffffffffffffffffffffffffffffff1690602001909291905050506117a7565b6040518082815260200191505060405180910390f35b610413600480360360208110156103fd57600080fd5b810190808035906020019092919050505061181b565b60405180878152602001861515151581526020018573ffffffffffffffffffffffffffffffffffffffff1673ffffffffffffffffffffffffffffffffffffffff168152602001848152602001838152602001828152602001965050505050505060405180910390f35b6104dc6004803603608081101561049257600080fd5b81019080803590602001909291908035906020019092919080359060200190929190803573ffffffffffffffffffffffffffffffffffffffff169060200190929190505050611884565b604051808215151515815260200191505060405180910390f35b6104fe6119f7565b604051808381526020018281526020019250505060405180910390f35b610523611a09565b604051808215151515815260200191505060405180910390f35b610545611a12565b6040518080602001828103825283818151815260200191508051906020019080838360005b8381101561058557808201518184015260208101905061056a565b50505050905090810190601f1680156105b25780820380516001836020036101000a031916815260200191505b509250505060405180910390f35b6106c1600480360360c08110156105d657600080fd5b81019080803573ffffffffffffffffffffffffffffffffffffffff169060200190929190803590602001909291908035906020019064010000000081111561061d57600080fd5b82018360208201111561062f57600080fd5b8035906020019184600183028401116401000000008311171561065157600080fd5b91908080601f016020809104026020016040519081016040528093929190818152602001838380828437600081840152601f19601f820116905080830192505050505050509192919290803590602001909291908035906020019092919080359060200190929190505050611ab0565b6040518082815260200191505060405180910390f35b61074d600480360360808110156106ed57600080fd5b810190808035906020019092919080359060200190929190803573ffffffffffffffffffffffffffffffffffffffff169060200190929190803573ffffffffffffffffffffffffffffffffffffffff169060200190929190505050611e88565b6040518082815260200191505060405180910390f35b61076b612331565b6040518082815260200191505060405180910390f35b6107ad6004803603602081101561079757600080fd5b8101908080359060200190929190505050612336565b005b6107b7612374565b604051808215151515815260200191505060405180910390f35b6107fd600480360360208110156107e757600080fd5b8101908080359060200190929190505050612387565b6040518082815260200191505060405180910390f35b61081b6123a7565b6040518080602001828103825283818151815260200191508051906020019080838360005b8381101561085b578082015181840152602081019050610840565b50505050905090810190601f1680156108885780820380516001836020036101000a031916815260200191505b509250505060405180910390f35b6108cc600480360360408110156108ac57600080fd5b810190808035906020019092919080359060200190929190505050612445565b6040518082815260200191505060405180910390f35b61090e600480360360208110156108f857600080fd5b8101908080359060200190929190505050612477565b604051808273ffffffffffffffffffffffffffffffffffffffff1673ffffffffffffffffffffffffffffffffffffffff16815260200191505060405180910390f35b61097c6004803603602081101561096657600080fd5b81019080803590602001909291905050506124aa565b604051808215151515815260200191505060405180910390f35b6109c2600480360360208110156109ac57600080fd5b81019080803590602001909291905050506124d7565b604051808215151515815260200191505060405180910390f35b610a9f600480360360408110156109f257600080fd5b810190808035906020019092919080359060200190640100000000811115610a1957600080fd5b820183602082011115610a2b57600080fd5b80359060200191846001830284011164010000000083111715610a4d57600080fd5b91908080601f016020809104026020016040519081016040528093929190818152602001838380828437600081840152601f19601f82011690508083019250505050505050919291929050505061251a565b6040518082815260200191505060405180910390f35b60006020528060005260406000206000915090508060000154908060010160009054906101000a900473ffffffffffffffffffffffffffffffffffffffff16905082565b610b016134af565b600e600084815260200190815260200160002061014060405190810160405290816000820160009054906101000a900460ff166002811115610b3f57fe5b6002811115610b4a57fe5b8152602001600182015481526020016002820160009054906101000a900473ffffffffffffffffffffffffffffffffffffffff1673ffffffffffffffffffffffffffffffffffffffff1673ffffffffffffffffffffffffffffffffffffffff16815260200160038201548152602001600482018054600181600116156101000203166002900480601f016020809104026020016040519081016040528092919081815260200182805460018160011615610100020316600290048015610c515780601f10610c2657610100808354040283529160200191610c51565b820191906000526020600020905b815481529060010190602001808311610c3457829003601f168201915b5050505050815260200160058201548152602001600682015481526020016007820154815260200160088201548152602001600982018054600181600116156101000203166002900480601f016020809104026020016040519081016040528092919081815260200182805460018160011615610100020316600290048015610d1b5780601f10610cf057610100808354040283529160200191610d1b565b820191906000526020600020905b815481529060010190602001808311610cfe57829003601f168201915b5050505050815250509050610d2e613527565b600f60003373ffffffffffffffffffffffffffffffffffffffff1673ffffffffffffffffffffffffffffffffffffffff16815260200190815260200160002060c060405190810160405290816000820160009054906101000a900473ffffffffffffffffffffffffffffffffffffffff1673ffffffffffffffffffffffffffffffffffffffff1673ffffffffffffffffffffffffffffffffffffffff168152602001600182018054600181600116156101000203166002900480601f016020809104026020016040519081016040528092919081815260200182805460018160011615610100020316600290048015610e685780601f10610e3d57610100808354040283529160200191610e68565b820191906000526020600020905b815481529060010190602001808311610e4b57829003601f168201915b50505050508152602001600282018054600181600116156101000203166002900480601f016020809104026020016040519081016040528092919081815260200182805460018160011615610100020316600290048015610f0a5780601f10610edf57610100808354040283529160200191610f0a565b820191906000526020600020905b815481529060010190602001808311610eed57829003601f168201915b50505050508152602001600382015481526020016004820160009054906101000a900460ff161515151581526020016005820154815250509050600083905060008260a00151905060003390506000600460009054906101000a900473ffffffffffffffffffffffffffffffffffffffff1673ffffffffffffffffffffffffffffffffffffffff1663359afa49898686866040518563ffffffff167c0100000000000000000000000000000000000000000000000000000000028152600401808581526020018481526020018381526020018273ffffffffffffffffffffffffffffffffffffffff1673ffffffffffffffffffffffffffffffffffffffff168152602001945050505050602060405180830381600087803b15801561102e57600080fd5b505af1158015611042573d6000803e3d6000fd5b505050506040513d602081101561105857600080fd5b810190808051906020019092919050505090506000601160008a8152602001908152602001600020549050505050505050505050565b600080611099613576565b6001600086815260200190815260200160002060060160008573ffffffffffffffffffffffffffffffffffffffff1673ffffffffffffffffffffffffffffffffffffffff1681526020019081526020016000206040805190810160405290816000820154815260200160018201548152505090508060000151816020015192509250509250929050565b60006001905090565b60035481565b6000606483111580156111455750600083115b151561115057600080fd5b600061115c84846117a7565b905060408051908101604052808581526020018473ffffffffffffffffffffffffffffffffffffffff168152506000808381526020019081526020016000206000820151816000015560208201518160010160006101000a81548173ffffffffffffffffffffffffffffffffffffffff021916908373ffffffffffffffffffffffffffffffffffffffff1602179055509050508091505092915050565b6000601260008481526020019081526020016000205490506112196134af565b600e600083815260200190815260200160002061014060405190810160405290816000820160009054906101000a900460ff16600281111561125757fe5b600281111561126257fe5b8152602001600182015481526020016002820160009054906101000a900473ffffffffffffffffffffffffffffffffffffffff1673ffffffffffffffffffffffffffffffffffffffff1673ffffffffffffffffffffffffffffffffffffffff16815260200160038201548152602001600482018054600181600116156101000203166002900480601f0160208091040260200160405190810160405280929190818152602001828054600181600116156101000203166002900480156113695780601f1061133e57610100808354040283529160200191611369565b820191906000526020600020905b81548152906001019060200180831161134c57829003601f168201915b5050505050815260200160058201548152602001600682015481526020016007820154815260200160088201548152602001600982018054600181600116156101000203166002900480601f0160208091040260200160405190810160405280929190818152602001828054600181600116156101000203166002900480156114335780601f1061140857610100808354040283529160200191611433565b820191906000526020600020905b81548152906001019060200180831161141657829003601f168201915b5050505050815250509050611446613527565b600f60003373ffffffffffffffffffffffffffffffffffffffff1673ffffffffffffffffffffffffffffffffffffffff16815260200190815260200160002060c060405190810160405290816000820160009054906101000a900473ffffffffffffffffffffffffffffffffffffffff1673ffffffffffffffffffffffffffffffffffffffff1673ffffffffffffffffffffffffffffffffffffffff168152602001600182018054600181600116156101000203166002900480601f0160208091040260200160405190810160405280929190818152602001828054600181600116156101000203166002900480156115805780601f1061155557610100808354040283529160200191611580565b820191906000526020600020905b81548152906001019060200180831161156357829003601f168201915b50505050508152602001600282018054600181600116156101000203166002900480601f0160208091040260200160405190810160405280929190818152602001828054600181600116156101000203166002900480156116225780601f106115f757610100808354040283529160200191611622565b820191906000526020600020905b81548152906001019060200180831161160557829003601f168201915b50505050508152602001600382015481526020016004820160009054906101000a900460ff161515151581526020016005820154815250509050600084905060008260a00151905060003390506000600460009054906101000a900473ffffffffffffffffffffffffffffffffffffffff1673ffffffffffffffffffffffffffffffffffffffff1663359afa49888686866040518563ffffffff167c0100000000000000000000000000000000000000000000000000000000028152600401808581526020018481526020018381526020018273ffffffffffffffffffffffffffffffffffffffff1673ffffffffffffffffffffffffffffffffffffffff168152602001945050505050602060405180830381600087803b15801561174657600080fd5b505af115801561175a573d6000803e3d6000fd5b505050506040513d602081101561177057600080fd5b8101908080519060200190929190505050905060006011600089815260200190815260200160002054905050505050505050505050565b60008282604051602001808381526020018273ffffffffffffffffffffffffffffffffffffffff1673ffffffffffffffffffffffffffffffffffffffff166c010000000000000000000000000281526014019250505060405160208183030381529060405280519060200120905092915050565b60016020528060005260406000206000915090508060000154908060010160009054906101000a900460ff16908060010160019054906101000a900473ffffffffffffffffffffffffffffffffffffffff16908060020154908060030154908060040154905086565b6000846001600082815260200190815260200160002060010160009054906101000a900460ff1615156118b657600080fd5b60006001600088815260200190815260200160002090506118d5613590565b60008083600301548152602001908152602001600020604080519081016040529081600082015481526020016001820160009054906101000a900473ffffffffffffffffffffffffffffffffffffffff1673ffffffffffffffffffffffffffffffffffffffff1673ffffffffffffffffffffffffffffffffffffffff1681525050905060008073ffffffffffffffffffffffffffffffffffffffff16826020015173ffffffffffffffffffffffffffffffffffffffff161415156119d957816020015173ffffffffffffffffffffffffffffffffffffffff163373ffffffffffffffffffffffffffffffffffffffff161415156119d157600080fd5b8590506119dd565b3390505b6119e989828a8a6128ca565b945050505050949350505050565b6000806000600a819150915091509091565b60006001905090565b60088054600181600116156101000203166002900480601f016020809104026020016040519081016040528092919081815260200182805460018160011615610100020316600290048015611aa85780601f10611a7d57610100808354040283529160200191611aa8565b820191906000526020600020905b815481529060010190602001808311611a8b57829003601f168201915b505050505081565b600060011515600660009054906101000a900460ff161515141515611ad457600080fd5b60011515600f60003373ffffffffffffffffffffffffffffffffffffffff1673ffffffffffffffffffffffffffffffffffffffff16815260200190815260200160002060040160009054906101000a900460ff161515141515611b3657600080fd5b611b3e6134af565b87816040019073ffffffffffffffffffffffffffffffffffffffff16908173ffffffffffffffffffffffffffffffffffffffff168152505086816060018181525050858160800181905250848160a0018181525050600081600001906002811115611ba557fe5b90816002811115611bb257fe5b81525050838160c001818152505060008390506000600190506000600460009054906101000a900473ffffffffffffffffffffffffffffffffffffffff1673ffffffffffffffffffffffffffffffffffffffff166388737b5e8360055433306040518563ffffffff167c0100000000000000000000000000000000000000000000000000000000028152600401808581526020018481526020018373ffffffffffffffffffffffffffffffffffffffff1673ffffffffffffffffffffffffffffffffffffffff1681526020018273ffffffffffffffffffffffffffffffffffffffff1673ffffffffffffffffffffffffffffffffffffffff168152602001945050505050602060405180830381600087803b158015611cd057600080fd5b505af1158015611ce4573d6000803e3d6000fd5b505050506040513d6020811015611cfa57600080fd5b81019080805190602001909291905050509050611d236001600c54612cde90919063ffffffff16565b600c8190555082601160008381526020019081526020016000208190555083600e600083815260200190815260200160002060008201518160000160006101000a81548160ff02191690836002811115611d7957fe5b02179055506020820151816001015560408201518160020160006101000a81548173ffffffffffffffffffffffffffffffffffffffff021916908373ffffffffffffffffffffffffffffffffffffffff160217905550606082015181600301556080820151816004019080519060200190611df59291906135c0565b5060a0820151816005015560c0820151816006015560e082015181600701556101008201518160080155610120820151816009019080519060200190611e3c9291906135c0565b509050507f31038b33714cfb183863b924f0c8645cbb924d3e4817eb07bcb47da1d20a8130816040518082815260200191505060405180910390a1809450505050509695505050505050565b60008060008086815260200190815260200160002060000154111515611ead57600080fd5b600085118015611ebe5750600a8511155b1515611ec957600080fd5b600030600354604051602001808373ffffffffffffffffffffffffffffffffffffffff1673ffffffffffffffffffffffffffffffffffffffff166c0100000000000000000000000002815260140182815260200192505050604051602081830303815290604052805190602001209050611f4f6001600354612cde90919063ffffffff16565b600381905550611f5d613640565b868160600181815250508581608001818152505033816040019073ffffffffffffffffffffffffffffffffffffffff16908173ffffffffffffffffffffffffffffffffffffffff16815250503384604051602001808373ffffffffffffffffffffffffffffffffffffffff1673ffffffffffffffffffffffffffffffffffffffff166c010000000000000000000000000281526014018273ffffffffffffffffffffffffffffffffffffffff1673ffffffffffffffffffffffffffffffffffffffff166c010000000000000000000000000281526014019250505060405160208183030381529060405280519060200120816000018181525050600181602001901515908115158152505080600160008481526020019081526020016000206000820151816000015560208201518160010160006101000a81548160ff02191690831515021790555060408201518160010160016101000a81548173ffffffffffffffffffffffffffffffffffffffff021916908373ffffffffffffffffffffffffffffffffffffffff160217905550606082015181600201556080820151816003015560a08201518160040155905050600073ffffffffffffffffffffffffffffffffffffffff16600260008360000151815260200190815260200160002060009054906101000a900473ffffffffffffffffffffffffffffffffffffffff1673ffffffffffffffffffffffffffffffffffffffff16141561226257600073ffffffffffffffffffffffffffffffffffffffff168473ffffffffffffffffffffffffffffffffffffffff16141561220a5733600260008360000151815260200190815260200160002060006101000a81548173ffffffffffffffffffffffffffffffffffffffff021916908373ffffffffffffffffffffffffffffffffffffffff160217905550612261565b83600260008360000151815260200190815260200160002060006101000a81548173ffffffffffffffffffffffffffffffffffffffff021916908373ffffffffffffffffffffffffffffffffffffffff1602179055505b5b600260008260000151815260200190815260200160002060009054906101000a900473ffffffffffffffffffffffffffffffffffffffff1673ffffffffffffffffffffffffffffffffffffffff16827f75b4ff136cc5de5957574c797de3334eb1c141271922b825eb071e0487ba2c5c89338a604051808481526020018373ffffffffffffffffffffffffffffffffffffffff1673ffffffffffffffffffffffffffffffffffffffff168152602001828152602001935050505060405180910390a38192505050949350505050565b600a81565b806001600082815260200190815260200160002060010160009054906101000a900460ff16151561236657600080fd5b6123708233612cff565b5050565b600660009054906101000a900460ff1681565b600060016000838152602001908152602001600020600201549050919050565b60078054600181600116156101000203166002900480601f01602080910402602001604051908101604052809291908181526020018280546001816001161561010002031660029004801561243d5780601f106124125761010080835404028352916020019161243d565b820191906000526020600020905b81548152906001019060200180831161242057829003601f168201915b505050505081565b600060016000848152602001908152602001600020600501600083815260200190815260200160002054905092915050565b60026020528060005260406000206000915054906101000a900473ffffffffffffffffffffffffffffffffffffffff1681565b60006001600083815260200190815260200160002060010160009054906101000a900460ff169050919050565b6000816001600082815260200190815260200160002060010160009054906101000a900460ff16151561250957600080fd5b61251283612edc565b915050919050565b60006125246134af565b600e600085815260200190815260200160002061014060405190810160405290816000820160009054906101000a900460ff16600281111561256257fe5b600281111561256d57fe5b8152602001600182015481526020016002820160009054906101000a900473ffffffffffffffffffffffffffffffffffffffff1673ffffffffffffffffffffffffffffffffffffffff1673ffffffffffffffffffffffffffffffffffffffff16815260200160038201548152602001600482018054600181600116156101000203166002900480601f0160208091040260200160405190810160405280929190818152602001828054600181600116156101000203166002900480156126745780601f1061264957610100808354040283529160200191612674565b820191906000526020600020905b81548152906001019060200180831161265757829003601f168201915b5050505050815260200160058201548152602001600682015481526020016007820154815260200160088201548152602001600982018054600181600116156101000203166002900480601f01602080910402602001604051908101604052809291908181526020018280546001816001161561010002031660029004801561273e5780601f106127135761010080835404028352916020019161273e565b820191906000526020600020905b81548152906001019060200180831161272157829003601f168201915b50505050508152505090503373ffffffffffffffffffffffffffffffffffffffff16816040015173ffffffffffffffffffffffffffffffffffffffff1614151561278757600080fd5b42816101000181815250508281610120018190525080600e600086815260200190815260200160002060008201518160000160006101000a81548160ff021916908360028111156127d457fe5b02179055506020820151816001015560408201518160020160006101000a81548173ffffffffffffffffffffffffffffffffffffffff021916908373ffffffffffffffffffffffffffffffffffffffff1602179055506060820151816003015560808201518160040190805190602001906128509291906135c0565b5060a0820151816005015560c0820151816006015560e0820151816007015561010082015181600801556101208201518160090190805190602001906128979291906135c0565b5090505060006128a5613276565b9050846012600083815260200190815260200160002081905550809250505092915050565b600080600160008781526020019081526020016000209050806002015484111515156128f557600080fd5b60008160010160019054906101000a900473ffffffffffffffffffffffffffffffffffffffff1673ffffffffffffffffffffffffffffffffffffffff16639588378e87896040518363ffffffff167c0100000000000000000000000000000000000000000000000000000000028152600401808373ffffffffffffffffffffffffffffffffffffffff1673ffffffffffffffffffffffffffffffffffffffff1681526020018281526020019250505060206040518083038186803b1580156129bc57600080fd5b505afa1580156129d0573d6000803e3d6000fd5b505050506040513d60208110156129e657600080fd5b81019080805190602001909291905050509050600081111515612a71576040517f08c379a000000000000000000000000000000000000000000000000000000000815260040180806020018281038252601b8152602001807f5f766f746572206d75737420686176652072657075746174696f6e000000000081525060200191505060405180910390fd5b838110151515612a8057600080fd5b60008490506000811415612a92578190505b60008360060160008973ffffffffffffffffffffffffffffffffffffffff1673ffffffffffffffffffffffffffffffffffffffff16815260200190815260200160002060010154141515612aeb57612aea8888612cff565b5b612b138360050160008881526020019081526020016000205482612cde90919063ffffffff16565b83600501600088815260200190815260200160002081905550612b43836004015482612cde90919063ffffffff16565b83600401819055506040805190810160405280878152602001828152508360060160008973ffffffffffffffffffffffffffffffffffffffff1673ffffffffffffffffffffffffffffffffffffffff16815260200190815260200160002060008201518160000155602082015181600101559050508673ffffffffffffffffffffffffffffffffffffffff16600260008560000154815260200190815260200160002060009054906101000a900473ffffffffffffffffffffffffffffffffffffffff1673ffffffffffffffffffffffffffffffffffffffff16897f066c061a3792cb3eb64a441a928655fcbafb4a54b49725fe9cd2951df5e7189e8985604051808381526020018281526020019250505060405180910390a4877fe715e19c865cb724f3c292cc2fffc24d9cdd398e179fb366f008cc73028e1c523373ffffffffffffffffffffffffffffffffffffffff168973ffffffffffffffffffffffffffffffffffffffff161415604051808215151515815260200191505060405180910390a2612cd188612edc565b9350505050949350505050565b6000808284019050838110151515612cf557600080fd5b8091505092915050565b6000600160008481526020019081526020016000209050612d1e613576565b8160060160008473ffffffffffffffffffffffffffffffffffffffff1673ffffffffffffffffffffffffffffffffffffffff168152602001908152602001600020604080519081016040529081600082015481526020016001820154815250509050612db0816020015183600501600084600001518152602001908152602001600020546133c790919063ffffffff16565b8260050160008360000151815260200190815260200160002081905550612de8816020015183600401546133c790919063ffffffff16565b82600401819055508160060160008473ffffffffffffffffffffffffffffffffffffffff1673ffffffffffffffffffffffffffffffffffffffff168152602001908152602001600020600080820160009055600182016000905550508273ffffffffffffffffffffffffffffffffffffffff16600260008460000154815260200190815260200160002060009054906101000a900473ffffffffffffffffffffffffffffffffffffffff1673ffffffffffffffffffffffffffffffffffffffff16857f0ecab23267930de581498fac1af19a95c888ec6583921ee9c47473e16245d3c860405160405180910390a450505050565b6000816001600082815260200190815260200160002060010160009054906101000a900460ff161515612f0e57600080fd5b600060016000858152602001908152602001600020905060008160010160019054906101000a900473ffffffffffffffffffffffffffffffffffffffff1673ffffffffffffffffffffffffffffffffffffffff1663b551c373866040518263ffffffff167c01000000000000000000000000000000000000000000000000000000000281526004018082815260200191505060206040518083038186803b158015612fb857600080fd5b505afa158015612fcc573d6000803e3d6000fd5b505050506040513d6020811015612fe257600080fd5b8101908080519060200190929190505050905060008060008460030154815260200190815260200160002060000154905060008090505b836002015481111515613267578160648481151561303357fe5b040284600501600083815260200190815260200160002054111561325a57613059613640565b8460c06040519081016040529081600082015481526020016001820160009054906101000a900460ff161515151581526020016001820160019054906101000a900473ffffffffffffffffffffffffffffffffffffffff1673ffffffffffffffffffffffffffffffffffffffff1673ffffffffffffffffffffffffffffffffffffffff1681526020016002820154815260200160038201548152602001600482015481525050905061310a886133e9565b600260008260000151815260200190815260200160002060009054906101000a900473ffffffffffffffffffffffffffffffffffffffff1673ffffffffffffffffffffffffffffffffffffffff16887f37471b9c9d295ffb1309ad070b8964700bfb7b555e8e8292d0b6cbc7dba35d108487604051808381526020018281526020019250505060405180910390a3806040015173ffffffffffffffffffffffffffffffffffffffff16639d4c162d89846040518363ffffffff167c01000000000000000000000000000000000000000000000000000000000281526004018083815260200182815260200192505050602060405180830381600087803b15801561321357600080fd5b505af1158015613227573d6000803e3d6000fd5b505050506040513d602081101561323d57600080fd5b810190808051906020019092919050505096505050505050613270565b8080600101915050613019565b50600094505050505b50919050565b600080600190506000600460009054906101000a900473ffffffffffffffffffffffffffffffffffffffff1673ffffffffffffffffffffffffffffffffffffffff166388737b5e8360055433306040518563ffffffff167c0100000000000000000000000000000000000000000000000000000000028152600401808581526020018481526020018373ffffffffffffffffffffffffffffffffffffffff1673ffffffffffffffffffffffffffffffffffffffff1681526020018273ffffffffffffffffffffffffffffffffffffffff1673ffffffffffffffffffffffffffffffffffffffff168152602001945050505050602060405180830381600087803b15801561338257600080fd5b505af1158015613396573d6000803e3d6000fd5b505050506040513d60208110156133ac57600080fd5b81019080805190602001909291905050509050809250505090565b60008282111515156133d857600080fd5b600082840390508091505092915050565b600060016000838152602001908152602001600020905060008090505b81600201548111151561343957816005016000828152602001908152602001600020600090558080600101915050613406565b50600160008381526020019081526020016000206000808201600090556001820160006101000a81549060ff02191690556001820160016101000a81549073ffffffffffffffffffffffffffffffffffffffff021916905560028201600090556003820160009055600482016000905550505050565b61014060405190810160405280600060028111156134c957fe5b815260200160008019168152602001600073ffffffffffffffffffffffffffffffffffffffff168152602001600081526020016060815260200160008152602001600081526020016000815260200160008152602001606081525090565b60c060405190810160405280600073ffffffffffffffffffffffffffffffffffffffff168152602001606081526020016060815260200160008152602001600015158152602001600081525090565b604080519081016040528060008152602001600081525090565b604080519081016040528060008152602001600073ffffffffffffffffffffffffffffffffffffffff1681525090565b828054600181600116156101000203166002900490600052602060002090601f016020900481019282601f1061360157805160ff191683800117855561362f565b8280016001018555821561362f579182015b8281111561362e578251825591602001919060010190613613565b5b50905061363c9190613695565b5090565b60c06040519081016040528060008019168152602001600015158152602001600073ffffffffffffffffffffffffffffffffffffffff1681526020016000815260200160008019168152602001600081525090565b6136b791905b808211156136b357600081600090555060010161369b565b5090565b9056fea165627a7a72305820368a2dd32dfad6134b9ae159b149c63605f87d724a4fc4aa524745298287470b0029",
  "source": "pragma solidity ^0.5.0;\n\nimport \"openzeppelin-solidity/contracts/math/SafeMath.sol\";\n/* import \"installed_contracts/zeppelin/contracts/access/Roles.sol\"; */\nimport \"@daostack/infra/contracts/votingMachines/AbsoluteVote.sol\";\n/* import \"contracts/IntVoteInterface.sol\"; // SHOULDN'T need this as AbsoluteVote inherits it ... */\n\ncontract Project is AbsoluteVote {\n  using SafeMath for uint;\n  /* using Roles.Role for Role; */\n\n  // Setting up the interface to use absoluteVote\n  IntVoteInterface absoluteVote;\n  bytes32 voteParametersHash;\n\n  /* Role participants; */\n  bool public initiated;\n  string public githubRepo;\n  string public purpose;\n  string arbitraryRequirements;\n  string legalContractUrl;\n  uint projectNum;\n\n  /* Participant [] participants; */\n  uint taskCnt;\n  // AbsoluteVote absoluteVote;\n\n  mapping(address => uint) owing;\n  mapping(bytes32 => Task) tasks; // bytes32 taskId  to  Task?\n  mapping(address => Participant) participants; // mapping for participants?\n  mapping(address => bool) paid;\n  mapping(bytes32 => uint) quorums;\n  mapping(bytes32 => bytes32) evidenceToTask; // evidenceVoteId => taskId\n\n  enum TaskStatus {proposed, inProgress, rejected}\n\n  struct Task {\n    TaskStatus status;\n    bytes32 taskId;\n    address owner;\n    uint duration; //seconds\n    string requirementsGitCommit; //git commit hash \"36c989247e49df868ff6b990ede7bcfe7c94b5bd\"\n    uint budget; // wei or dai?\n    uint reward;\n    uint votePercentage;\n    uint submissionTime;\n    string evidenceGitCommit;\n  }\n\n  struct Participant {\n    address ethAddress;\n    string legalName;\n    string githubUsername;\n    uint owes;\n    bool initialized;\n    uint equity;\n    // self sovereign ID ?\n  }\n\n  constructor(\n    string memory _githubRepo,\n    address _adminRole,\n    string memory _adminName,\n    string memory _adminGithubUsername,\n    string memory _purpose,\n    address _voteInterface,\n    uint _votePercentage,\n    uint _projectNum) public {\n\n        Participant memory admin;\n        admin.ethAddress = tx.origin;\n        admin.legalName = _adminName;\n        admin.githubUsername = _adminGithubUsername;\n\n        participants[_adminRole] = admin;\n\n        githubRepo = _githubRepo; // test validity\n        purpose = _purpose;\n\n        projectNum = _projectNum;\n  }\n\n  // Invoked daily by server-side CRON .\n  function statusCheck () public returns (bool yes){\n    return true;\n    // check vote status\n  }\n\n /* function addParticipant(address _address) public {\n    require(participants.has(msg.sender), \"DOES_NOT_HAVE_ADMIN_ROLE\");\n    participants.add(_address);\n    owing[_address] =\n  } */\n\n  /*\n\n  function fund() public payable {\n    require(owing[msg.sender]);\n    require(paid[msg.sender] == false);\n    require(msg.value >= owing[msg.value]);\n    // convert ether to dai (MakerDAO)\n      // ***stuff to code***\n      //  swaps for DAI maybe ...\n      // Route funds to multisig wallet (Gnosis)\n    paid[msg.sender] = true;\n  } */\n\n\n\n  /* function initiate(string memory _legalContractUrl) public  {\n    for (uint i = 0; i < participants.length; i++) {\n      require(paid[participants[i]]);\n    }\n    legalContractUrl = _legalContractUrl;\n    // do something with dai?\n    initiated = true;\n  } */\n\n  event taskProposed (bytes32 taskId_);\n\n  function proposeTask\n  (\n    address _owner,\n    uint _duration, //seconds\n    string memory _requirementsGitCommit, //git commit hash \"36c989247e49df868ff6b990ede7bcfe7c94b5bd\"\n    uint _budget, // wei or dai?\n    uint _reward,\n    uint _votePercentage\n  ) public\n    returns (bytes32){\n\n    require(initiated == true);\n    require(participants[msg.sender].initialized == true);\n    // create Task\n\n    Task memory newTask;\n    newTask.owner = _owner;\n    newTask.duration = _duration;\n    newTask.requirementsGitCommit = _requirementsGitCommit;\n    newTask.budget = _budget;\n    newTask.status = TaskStatus.proposed;\n    newTask.reward = _reward;\n\n\n    // Voting parameters and schemes params:\n      // _votePercentage defined by proportion of funds proposed to be spent or something\n      uint votePercentage = _votePercentage;\n    /* voteParametersHash = absoluteVote.getParametersHash(\n      votePercentage,\n      address(0)\n    ); */\n\n    // Hash this?\n\n    //  PROPOSING \n    // We should use interfaces  these allow us to call functions from other contracts\n\n    // next, calling PROPOSE\n    // Need to pass: 1) # of choices  2) paramsHash  3) msg.sender  4) organisation address\n    // -- numOfChoices = 2 ('yes' or 'no')\n    // -- paramsHash = absoluteVote.getParamsHash() AFTER setting the parameters by calling absoluteVote.setParams()\n    // -- msg.sender\n    // -- address _organization = if 0, _organization = msg.sender\n\n    // However, it seems that absoluteVote also stores different proposals (tasks)\n    // Hence, if used as it is, we would store all the info twice\n\n    // Build out initiating task voting period\n    uint numOfChoices = 1;\n\n\n    bytes32 taskId = absoluteVote.propose(numOfChoices, voteParametersHash, msg.sender, address(this));\n    taskCnt = taskCnt.add(1);\n\n\n    quorums[taskId] = votePercentage;\n    tasks[taskId] = newTask;\n\n    // Figure how to to transmit taskId to client for proposer to email to other participants\n    // With an event.\n\n    emit taskProposed(taskId);\n    return taskId;\n    // ideally we have a db on the server with tasks and statuses, including everyone who has and hasn't voted on them.\n    // When people log in, they get an interface with Things They Need To Vote On and Tasks They Need To Complete\n\n    // BUT for MVP - proposer emails the other members the taskId and asks them to go vote\n  }\n\n\n\n  // Called by task owner\n  function submitEvidence (bytes32 _taskId, string memory _evidenceGitCommit) public returns (bytes32) {\n    Task memory task = tasks[_taskId];\n\n    require(task.owner == msg.sender); // do we need this?\n    /* require(task.TaskStatus == TaskStatus.inProgress); */\n    task.submissionTime = now; /// this will be messed if multiple submissions of evidence are called\n    task.evidenceGitCommit = _evidenceGitCommit;\n\n    tasks[_taskId] = task;\n\n    // Again, transmit evidenceVoteId to client with event.\n    bytes32 evidenceVoteId = initiateEvidenceBallot();\n    evidenceToTask[evidenceVoteId] = _taskId;\n\n    return evidenceVoteId;\n    // pretty much always invoke initiateEvidenceBallot() immediately ...\n  }\n\n  function initiateEvidenceBallot () private returns (bytes32) {\n    uint numOfChoices = 1;\n    bytes32 evidenceVoteId = absoluteVote.propose(numOfChoices, voteParametersHash, msg.sender, address(this));\n    return evidenceVoteId;\n  }\n\n\n\n  // @params _ballotId bytes32 returned by absoluteVote.propose() - i.e. ballot reference\n  // @params _vote uint 0 = NO, 1 = YES.\n\n  function voteOnProposedTask(bytes32 _taskId, uint _vote) public{\n\n    //  VOTING \n    // Inputs:\n    // -- bytes32 taskId = identification hash of the task\n    // -- uint256 _vote = the vote\n    // -- uint256 _amount = reputation\n    // -- address _voter = this is used if you are allowed to vote on someone's behalf\n\n    // Accessing data\n    Task memory task = tasks[_taskId];\n    Participant memory participant = participants[msg.sender];\n\n    // Initialising inputs\n    uint vote = _vote;\n    uint reputation = participant.equity; // is reputation = equity? ... or hard code this so everyone is equal this iteration\n    address voter = msg.sender; // no delegation - for now\n    bool voteDecision; // what does bool represent? AbsoluteVote ... vote() ... internalVote() ... _execute()\n\n    // Voting\n    voteDecision = absoluteVote.vote(_taskId, vote, reputation, voter);\n    /*\n    if ( ) { // approved\n      // get info from tasks][_taskId]\n      // transmit budget to owner address\n        // change task status to inProgress\n      } else if () { // failed\n        // change taskStatus to rejected\n        // here we could unlock budget that could be locked upon task proposal ...\n        // need to make sure budget exists for any proposed tasks ...\n      } else {\n        // ????\n      }\n*/\n\n    /* task.totalVotes = task.totalVotes.add(1); // add to the total number of votes */\n      // ^^ this logic is likely handled, again, by AbsoluteVote\n\n    // if not completed (or threshold has been passed), returns False\n    // if completed, emits ExecuteProposal from IntVoteInterface\n      // AND returns executeProposal function inside ProposalExecuteInterface\n      // I am guessing we could replace this to return True\n\n\n    // If failed, _\n    // if approved\n      // Disburse budget to task owner or TaskWallet contract\n\n    // if everyone voted\n    uint quorum = quorums[_taskId];\n\n    /* if (task.totalVotes >= quorum) {\n      // pretty sure this is native to AbsoluteVote contracts ...\n      //tally(_taskId, voteDecision);\n    } */\n\n\n  }\n\n\n\n  function voteOnEvidence(bytes32 _evidenceVoteId, uint _vote) public {\n\n    //  VOTING \n    // Inputs:\n    // -- bytes32 taskId = identification hash of the task\n    // -- uint256 _vote = the vote\n    // -- uint256 _amount = reputation\n    // -- address _voter = this is used if you are allowed to vote on someone's behalf\n\n    // Accessing data\n    bytes32 taskId = evidenceToTask[_evidenceVoteId];\n    Task memory task = tasks[taskId];\n    Participant memory participant = participants[msg.sender];\n\n    // Initialising inputs\n    uint vote = _vote;\n    uint reputation = participant.equity; // is reputation = equity? ... or hard code this so everyone is equal this iteration\n    address voter = msg.sender; // no delegation - for now\n    bool voteDecision; // what does bool represent? AbsoluteVote ... vote() ... internalVote() ... _execute()\n\n    // Voting\n    voteDecision = absoluteVote.vote(taskId, vote, reputation, voter);\n    /*\n    if () { // approved\n      // if (now < deadline)\n        // transmit reward to owner address\n      // change task status to completed\n    } else if () { // failed\n        // do not change taskStatus\n        // Can owners resubmit, or do we have a failed state in TaskStatus enum?\n    } else {\n        // ????\n    }\n    */\n\n    // --------- this needs work vvvv ---------\n    // if not completed (or threshold has been passed), returns False\n    // if completed, emits ExecuteProposal from IntVoteInterface\n      // AND returns executeProposal function inside ProposalExecuteInterface\n      // I am guessing we could replace this to return True\n\n    // if everyone voted\n    uint quorum = quorums[taskId];\n\n    /* if (task.totalVotes >= quorum) {\n      // pretty sure this is native to AbsoluteVote contracts ...\n      //tally(_taskId, voteDecision);\n    } */\n\n\n  }\n\n  /*\n// do we need this?\n  function tally(uint _taskId, bool _voteDecision) public {\n    require(_voteDecision);\n\n    Task memory task = tasks[_taskId];\n    if (_voteDecision == true) {\n      task.status = TaskStatus.inProgress;\n      task.deadline = now + task.duration;\n      (task.owner).transfer(task.budget); // or transfer to task budget wallet, owned by owner or multisig ...\n    }\n    else {\n      task.status = TaskStatus.rejected;\n    }\n  }\n\n\n  // do we need this?\n  // Called by admin or voteOnEvidence()\n  function tallyEvidenceVotes (_evidenceVoteId) {\n\n    require( ); // all votes are in\n\n    if (rejected) {\n      task.taskStatus = TaskStatus.inProgress;\n      // extend deadlines\n    } else {\n      task.taskStatus = TaskStatus.completed;\n      // pay out reward\n      // whatever else\n    }\n  }\n\n\n  function destroyProject () {\n\n    // Some voting mechanism - probably supermajority or unanimous\n    // Revoke funds from task budget wallets\n    // Redistribute funds to participants or investors proportionate to - investment. reputation. number of tasks completed. whatever.\n    initiated = false;\n  }\n\n  function upgradeProject () {\n    // migrate to new contract logic  ........ NOT MVP.\n  } */\n}\n",
  "sourcePath": "/Users/iv/Code/projects/self-sovereign-organization/development/project/contracts/Project.sol",
  "compiler": {
    "name": "solc",
    "version": "0.5.4+commit.9549d8ff.Emscripten.clang"
  },
  "schemaVersion": "3.0.1",
  "updatedAt": "2019-03-07T13:17:40.416Z",
  "devdoc": {
    "methods": {
      "cancelVote(bytes32)": {
        "details": "Cancel the vote of the msg.sender: subtract the reputation amount from the votes and delete the voter from the proposal struct",
        "params": {
          "_proposalId": "id of the proposal"
        }
      },
      "execute(bytes32)": {
        "details": "execute check if the proposal has been decided, and if so, execute the proposal",
        "params": {
          "_proposalId": "the id of the proposal"
        },
        "return": "bool true - the proposal has been executed             false - otherwise."
      },
      "getAllowedRangeOfChoices()": {
        "details": "getAllowedRangeOfChoices returns the allowed range of choices for a voting machine.",
        "return": "min - minimum number of choices max - maximum number of choices"
      },
      "getNumberOfChoices(bytes32)": {
        "details": "getNumberOfChoices returns the number of choices possible in this proposal excluding the abstain vote (0)",
        "params": {
          "_proposalId": "the ID of the proposal"
        },
        "return": "uint256 that contains number of choices"
      },
      "getParametersHash(uint256,address)": {
        "details": "hashParameters returns a hash of the given parameters"
      },
      "isAbstainAllow()": {
        "details": "isAbstainAllow returns if the voting machine allow abstain (0)",
        "return": "bool true or false"
      },
      "isVotable(bytes32)": {
        "details": "isVotable check if the proposal is votable",
        "params": {
          "_proposalId": "the ID of the proposal"
        },
        "return": "bool true or false"
      },
      "propose(uint256,bytes32,address,address)": {
        "details": "register a new proposal with the given parameters. Every proposal has a unique ID which is being generated by calculating keccak256 of a incremented counter.",
        "params": {
          "_numOfChoices": "number of voting choices",
          "_organization": "address",
          "_paramsHash": "defined the parameters of the voting machine used for this proposal"
        },
        "return": "proposal's id."
      },
      "setParameters(uint256,address)": {
        "details": "hash the parameters, save them if necessary, and return the hash value"
      },
      "vote(bytes32,uint256,uint256,address)": {
        "details": "voting function",
        "params": {
          "_amount": "the reputation amount to vote with . if _amount == 0 it will use all voter reputation.",
          "_proposalId": "id of the proposal",
          "_vote": "a value between 0 to and the proposal number of choices.",
          "_voter": "voter address"
        },
        "return": "bool true - the proposal has been executed             false - otherwise."
      },
      "voteInfo(bytes32,address)": {
        "details": "voteInfo returns the vote and the amount of reputation of the user committed to this proposal",
        "params": {
          "_proposalId": "the ID of the proposal",
          "_voter": "the address of the voter"
        },
        "return": "uint256 vote - the voters vote       uint256 reputation - amount of reputation committed by _voter to _proposalId"
      },
      "voteStatus(bytes32,uint256)": {
        "details": "voteStatus returns the reputation voted for a proposal for a specific voting choice.",
        "params": {
          "_choice": "the index in the",
          "_proposalId": "the ID of the proposal"
        },
        "return": "voted reputation for the given choice"
      }
    }
  },
  "userdoc": {
    "methods": {}
  }
}