{
  "contractName": "Project",
  "abi": [
    {
      "constant": true,
      "inputs": [
        {
          "name": "",
          "type": "address"
        }
      ],
      "name": "participants",
      "outputs": [
        {
          "name": "ethAddress",
          "type": "address"
        },
        {
          "name": "legalName",
          "type": "string"
        },
        {
          "name": "githubUsername",
          "type": "string"
        },
        {
          "name": "investmentValue",
          "type": "uint256"
        },
        {
          "name": "initialized",
          "type": "bool"
        },
        {
          "name": "paid",
          "type": "bool"
        }
      ],
      "payable": false,
      "stateMutability": "view",
      "type": "function"
    },
    {
      "constant": true,
      "inputs": [],
      "name": "legalContractUrl",
      "outputs": [
        {
          "name": "",
          "type": "string"
        }
      ],
      "payable": false,
      "stateMutability": "view",
      "type": "function"
    },
    {
      "constant": true,
      "inputs": [],
      "name": "requiredNumberPaid",
      "outputs": [
        {
          "name": "",
          "type": "uint256"
        }
      ],
      "payable": false,
      "stateMutability": "view",
      "type": "function"
    },
    {
      "constant": true,
      "inputs": [],
      "name": "requiredInvestment",
      "outputs": [
        {
          "name": "",
          "type": "uint256"
        }
      ],
      "payable": false,
      "stateMutability": "view",
      "type": "function"
    },
    {
      "constant": true,
      "inputs": [],
      "name": "purpose",
      "outputs": [
        {
          "name": "",
          "type": "string"
        }
      ],
      "payable": false,
      "stateMutability": "view",
      "type": "function"
    },
    {
      "constant": true,
      "inputs": [],
      "name": "quorumPct",
      "outputs": [
        {
          "name": "",
          "type": "uint256"
        }
      ],
      "payable": false,
      "stateMutability": "view",
      "type": "function"
    },
    {
      "constant": true,
      "inputs": [
        {
          "name": "",
          "type": "bytes32"
        }
      ],
      "name": "taskVotes",
      "outputs": [
        {
          "name": "numVotedProposal",
          "type": "uint256"
        },
        {
          "name": "proposalYesVotes",
          "type": "uint256"
        },
        {
          "name": "numVotedEvidence",
          "type": "uint256"
        },
        {
          "name": "evidenceYesVotes",
          "type": "uint256"
        }
      ],
      "payable": false,
      "stateMutability": "view",
      "type": "function"
    },
    {
      "constant": true,
      "inputs": [],
      "name": "numberPaid",
      "outputs": [
        {
          "name": "",
          "type": "uint256"
        }
      ],
      "payable": false,
      "stateMutability": "view",
      "type": "function"
    },
    {
      "constant": true,
      "inputs": [],
      "name": "initiated",
      "outputs": [
        {
          "name": "",
          "type": "bool"
        }
      ],
      "payable": false,
      "stateMutability": "view",
      "type": "function"
    },
    {
      "constant": true,
      "inputs": [],
      "name": "projectNum",
      "outputs": [
        {
          "name": "",
          "type": "uint256"
        }
      ],
      "payable": false,
      "stateMutability": "view",
      "type": "function"
    },
    {
      "constant": true,
      "inputs": [
        {
          "name": "",
          "type": "address"
        }
      ],
      "name": "paid",
      "outputs": [
        {
          "name": "",
          "type": "bool"
        }
      ],
      "payable": false,
      "stateMutability": "view",
      "type": "function"
    },
    {
      "constant": true,
      "inputs": [],
      "name": "githubRepo",
      "outputs": [
        {
          "name": "",
          "type": "string"
        }
      ],
      "payable": false,
      "stateMutability": "view",
      "type": "function"
    },
    {
      "constant": true,
      "inputs": [
        {
          "name": "",
          "type": "uint256"
        }
      ],
      "name": "participantsArray",
      "outputs": [
        {
          "name": "",
          "type": "address"
        }
      ],
      "payable": false,
      "stateMutability": "view",
      "type": "function"
    },
    {
      "constant": true,
      "inputs": [
        {
          "name": "",
          "type": "bytes32"
        }
      ],
      "name": "tasks",
      "outputs": [
        {
          "name": "status",
          "type": "uint8"
        },
        {
          "name": "taskId",
          "type": "bytes32"
        },
        {
          "name": "owner",
          "type": "address"
        },
        {
          "name": "duration",
          "type": "uint256"
        },
        {
          "name": "requirementsGitCommitHash",
          "type": "string"
        },
        {
          "name": "budget",
          "type": "uint256"
        },
        {
          "name": "reward",
          "type": "uint256"
        },
        {
          "name": "votePercentage",
          "type": "uint256"
        },
        {
          "name": "taskStart",
          "type": "uint256"
        },
        {
          "name": "submissionTime",
          "type": "uint256"
        },
        {
          "name": "latePenalty",
          "type": "uint256"
        },
        {
          "name": "evidenceGitCommit",
          "type": "string"
        }
      ],
      "payable": false,
      "stateMutability": "view",
      "type": "function"
    },
    {
      "constant": true,
      "inputs": [],
      "name": "arbitraryRequirements",
      "outputs": [
        {
          "name": "",
          "type": "string"
        }
      ],
      "payable": false,
      "stateMutability": "view",
      "type": "function"
    },
    {
      "inputs": [
        {
          "name": "_githubRepo",
          "type": "string"
        },
        {
          "name": "_adminName",
          "type": "string"
        },
        {
          "name": "_adminGithubUsername",
          "type": "string"
        },
        {
          "name": "_purpose",
          "type": "string"
        },
        {
          "name": "_requiredInvestment",
          "type": "uint256"
        },
        {
          "name": "_requiredNumberPaid",
          "type": "uint256"
        },
        {
          "name": "_quorumPct",
          "type": "uint256"
        },
        {
          "name": "_projectNum",
          "type": "uint256"
        }
      ],
      "payable": false,
      "stateMutability": "nonpayable",
      "type": "constructor"
    },
    {
      "anonymous": false,
      "inputs": [
        {
          "indexed": false,
          "name": "taskId_",
          "type": "bytes32"
        }
      ],
      "name": "taskProposed",
      "type": "event"
    },
    {
      "anonymous": false,
      "inputs": [
        {
          "indexed": false,
          "name": "",
          "type": "uint256"
        }
      ],
      "name": "participantsLength",
      "type": "event"
    },
    {
      "constant": true,
      "inputs": [],
      "name": "getBalance",
      "outputs": [
        {
          "name": "",
          "type": "uint256"
        }
      ],
      "payable": false,
      "stateMutability": "view",
      "type": "function"
    },
    {
      "constant": false,
      "inputs": [
        {
          "name": "_address",
          "type": "address"
        },
        {
          "name": "_legalName",
          "type": "string"
        },
        {
          "name": "_githubUsername",
          "type": "string"
        }
      ],
      "name": "addParticipant",
      "outputs": [],
      "payable": false,
      "stateMutability": "nonpayable",
      "type": "function"
    },
    {
      "constant": false,
      "inputs": [],
      "name": "fund",
      "outputs": [],
      "payable": true,
      "stateMutability": "payable",
      "type": "function"
    },
    {
      "constant": true,
      "inputs": [
        {
          "name": "_participantAddress",
          "type": "address"
        }
      ],
      "name": "owes",
      "outputs": [
        {
          "name": "",
          "type": "uint256"
        }
      ],
      "payable": false,
      "stateMutability": "view",
      "type": "function"
    },
    {
      "constant": false,
      "inputs": [
        {
          "name": "_owner",
          "type": "address"
        },
        {
          "name": "_duration",
          "type": "uint256"
        },
        {
          "name": "_requirementsGitCommitHash",
          "type": "string"
        },
        {
          "name": "_budget",
          "type": "uint256"
        },
        {
          "name": "_reward",
          "type": "uint256"
        },
        {
          "name": "_latePenalty",
          "type": "uint256"
        }
      ],
      "name": "proposeTask",
      "outputs": [
        {
          "name": "",
          "type": "bytes32"
        }
      ],
      "payable": false,
      "stateMutability": "nonpayable",
      "type": "function"
    },
    {
      "constant": false,
      "inputs": [
        {
          "name": "_taskId",
          "type": "bytes32"
        },
        {
          "name": "_vote",
          "type": "uint8"
        }
      ],
      "name": "voteOnTaskProposal",
      "outputs": [],
      "payable": false,
      "stateMutability": "nonpayable",
      "type": "function"
    },
    {
      "constant": false,
      "inputs": [
        {
          "name": "_taskId",
          "type": "bytes32"
        },
        {
          "name": "_evidenceGitCommitHash",
          "type": "string"
        }
      ],
      "name": "submitEvidence",
      "outputs": [],
      "payable": false,
      "stateMutability": "nonpayable",
      "type": "function"
    },
    {
      "constant": false,
      "inputs": [
        {
          "name": "_taskId",
          "type": "bytes32"
        },
        {
          "name": "_evidenceVote",
          "type": "uint256"
        }
      ],
      "name": "voteOnEvidence",
      "outputs": [],
      "payable": false,
      "stateMutability": "nonpayable",
      "type": "function"
    },
    {
      "constant": false,
      "inputs": [
        {
          "name": "_taskId",
          "type": "bytes32"
        },
        {
          "name": "_vote",
          "type": "uint8"
        }
      ],
      "name": "voteOnEvidence",
      "outputs": [],
      "payable": false,
      "stateMutability": "nonpayable",
      "type": "function"
    },
    {
      "constant": false,
      "inputs": [],
      "name": "getParticipantsLength",
      "outputs": [
        {
          "name": "",
          "type": "uint256"
        }
      ],
      "payable": false,
      "stateMutability": "nonpayable",
      "type": "function"
    }
  ],
  "bytecode": "0x60806040523480156200001157600080fd5b5060405162002baf38038062002baf83398101806040526101008110156200003857600080fd5b8101908080516401000000008111156200005157600080fd5b828101905060208101848111156200006857600080fd5b81518560018202830111640100000000821117156200008657600080fd5b50509291906020018051640100000000811115620000a357600080fd5b82810190506020810184811115620000ba57600080fd5b8151856001820283011164010000000082111715620000d857600080fd5b50509291906020018051640100000000811115620000f557600080fd5b828101905060208101848111156200010c57600080fd5b81518560018202830111640100000000821117156200012a57600080fd5b505092919060200180516401000000008111156200014757600080fd5b828101905060208101848111156200015e57600080fd5b81518560018202830111640100000000821117156200017c57600080fd5b505092919060200180519060200190929190805190602001909291908051906020019092919080519060200190929190505050620001b962000383565b32816000019073ffffffffffffffffffffffffffffffffffffffff16908173ffffffffffffffffffffffffffffffffffffffff1681525050886001908051906020019062000209929190620003d4565b50878160200181905250868160400181905250856002908051906020019062000234929190620003d4565b50600181608001901515908115158152505080600b60003273ffffffffffffffffffffffffffffffffffffffff1673ffffffffffffffffffffffffffffffffffffffff16815260200190815260200160002060008201518160000160006101000a81548173ffffffffffffffffffffffffffffffffffffffff021916908373ffffffffffffffffffffffffffffffffffffffff1602179055506020820151816001019080519060200190620002eb9291906200045b565b5060408201518160020190805190602001906200030a9291906200045b565b506060820151816003015560808201518160040160006101000a81548160ff02191690831515021790555060a08201518160040160016101000a81548160ff021916908315150217905550905050846005819055508360068190555081600881905550826009819055505050505050505050506200050a565b60c060405190810160405280600073ffffffffffffffffffffffffffffffffffffffff1681526020016060815260200160608152602001600081526020016000151581526020016000151581525090565b828054600181600116156101000203166002900490600052602060002090601f016020900481019282601f106200041757805160ff191683800117855562000448565b8280016001018555821562000448579182015b82811115620004475782518255916020019190600101906200042a565b5b509050620004579190620004e2565b5090565b828054600181600116156101000203166002900490600052602060002090601f016020900481019282601f106200049e57805160ff1916838001178555620004cf565b82800160010185558215620004cf579182015b82811115620004ce578251825591602001919060010190620004b1565b5b509050620004de9190620004e2565b5090565b6200050791905b8082111562000503576000816000905550600101620004e9565b5090565b90565b612695806200051a6000396000f3fe608060405260043610610183576000357c010000000000000000000000000000000000000000000000000000000090048063845af94d116100ee578063a7612edf116100a7578063e579f50011610081578063e579f50014610ae4578063f48a0b3114610c84578063f606e4bb14610d56578063fff1964514610dbb57610183565b8063a7612edf146109cf578063aead6c1314610a5f578063b60d428814610ada57610183565b8063845af94d14610835578063899524981461087d578063921193a0146108e15780639f1185361461090c578063a0b5d6c81461093b578063a340cf791461096657610183565b8063681e676111610140578063681e6761146105d55780636928cdc11461060057806370740aab1461062b57806375921884146106bb57806376ab5af6146106e6578063832332921461071157610183565b806307e9c66d1461018857806309e69ede1461030757806312065fe01461048d57806327199d6c146104b8578063360ba6ab146104fd578063436d7c1914610545575b600080fd5b34801561019457600080fd5b50610305600480360360608110156101ab57600080fd5b81019080803573ffffffffffffffffffffffffffffffffffffffff169060200190929190803590602001906401000000008111156101e857600080fd5b8201836020820111156101fa57600080fd5b8035906020019184600183028401116401000000008311171561021c57600080fd5b91908080601f016020809104026020016040519081016040528093929190818152602001838380828437600081840152601f19601f8201169050808301925050505050505091929192908035906020019064010000000081111561027f57600080fd5b82018360208201111561029157600080fd5b803590602001918460018302840111640100000000831117156102b357600080fd5b91908080601f016020809104026020016040519081016040528093929190818152602001838380828437600081840152601f19601f820116905080830192505050505050509192919290505050610e4b565b005b34801561031357600080fd5b506103566004803603602081101561032a57600080fd5b81019080803573ffffffffffffffffffffffffffffffffffffffff16906020019092919050505061110f565b604051808773ffffffffffffffffffffffffffffffffffffffff1673ffffffffffffffffffffffffffffffffffffffff16815260200180602001806020018681526020018515151515815260200184151515158152602001838103835288818151815260200191508051906020019080838360005b838110156103e65780820151818401526020810190506103cb565b50505050905090810190601f1680156104135780820380516001836020036101000a031916815260200191505b50838103825287818151815260200191508051906020019080838360005b8381101561044c578082015181840152602081019050610431565b50505050905090810190601f1680156104795780820380516001836020036101000a031916815260200191505b509850505050505050505060405180910390f35b34801561049957600080fd5b506104a26112b5565b6040518082815260200191505060405180910390f35b3480156104c457600080fd5b506104fb600480360360408110156104db57600080fd5b8101908080359060200190929190803590602001909291905050506112d4565b005b34801561050957600080fd5b506105436004803603604081101561052057600080fd5b8101908080359060200190929190803560ff16906020019092919050505061133a565b005b34801561055157600080fd5b5061055a611595565b6040518080602001828103825283818151815260200191508051906020019080838360005b8381101561059a57808201518184015260208101905061057f565b50505050905090810190601f1680156105c75780820380516001836020036101000a031916815260200191505b509250505060405180910390f35b3480156105e157600080fd5b506105ea611633565b6040518082815260200191505060405180910390f35b34801561060c57600080fd5b50610615611639565b6040518082815260200191505060405180910390f35b34801561063757600080fd5b5061064061163f565b6040518080602001828103825283818151815260200191508051906020019080838360005b83811015610680578082015181840152602081019050610665565b50505050905090810190601f1680156106ad5780820380516001836020036101000a031916815260200191505b509250505060405180910390f35b3480156106c757600080fd5b506106d06116dd565b6040518082815260200191505060405180910390f35b3480156106f257600080fd5b506106fb6116e3565b6040518082815260200191505060405180910390f35b34801561071d57600080fd5b5061081f600480360360c081101561073457600080fd5b81019080803573ffffffffffffffffffffffffffffffffffffffff169060200190929190803590602001909291908035906020019064010000000081111561077b57600080fd5b82018360208201111561078d57600080fd5b803590602001918460018302840111640100000000831117156107af57600080fd5b91908080601f016020809104026020016040519081016040528093929190818152602001838380828437600081840152601f19601f82011690508083019250505050505050919291929080359060200190929190803590602001909291908035906020019092919050505061172c565b6040518082815260200191505060405180910390f35b34801561084157600080fd5b5061087b6004803603604081101561085857600080fd5b8101908080359060200190929190803560ff169060200190929190505050611a6e565b005b34801561088957600080fd5b506108b6600480360360208110156108a057600080fd5b8101908080359060200190929190505050611d34565b6040518085815260200184815260200183815260200182815260200194505050505060405180910390f35b3480156108ed57600080fd5b506108f6611d64565b6040518082815260200191505060405180910390f35b34801561091857600080fd5b50610921611d6a565b604051808215151515815260200191505060405180910390f35b34801561094757600080fd5b50610950611d7c565b6040518082815260200191505060405180910390f35b34801561097257600080fd5b506109b56004803603602081101561098957600080fd5b81019080803573ffffffffffffffffffffffffffffffffffffffff169060200190929190505050611d82565b604051808215151515815260200191505060405180910390f35b3480156109db57600080fd5b506109e4611da2565b6040518080602001828103825283818151815260200191508051906020019080838360005b83811015610a24578082015181840152602081019050610a09565b50505050905090810190601f168015610a515780820380516001836020036101000a031916815260200191505b509250505060405180910390f35b348015610a6b57600080fd5b50610a9860048036036020811015610a8257600080fd5b8101908080359060200190929190505050611e40565b604051808273ffffffffffffffffffffffffffffffffffffffff1673ffffffffffffffffffffffffffffffffffffffff16815260200191505060405180910390f35b610ae2611e7e565b005b348015610af057600080fd5b50610b1d60048036036020811015610b0757600080fd5b8101908080359060200190929190505050612002565b604051808d6004811115610b2d57fe5b60ff1681526020018c81526020018b73ffffffffffffffffffffffffffffffffffffffff1673ffffffffffffffffffffffffffffffffffffffff1681526020018a8152602001806020018981526020018881526020018781526020018681526020018581526020018481526020018060200183810383528b818151815260200191508051906020019080838360005b83811015610bd7578082015181840152602081019050610bbc565b50505050905090810190601f168015610c045780820380516001836020036101000a031916815260200191505b50838103825284818151815260200191508051906020019080838360005b83811015610c3d578082015181840152602081019050610c22565b50505050905090810190601f168015610c6a5780820380516001836020036101000a031916815260200191505b509e50505050505050505050505050505060405180910390f35b348015610c9057600080fd5b50610d5460048036036040811015610ca757600080fd5b810190808035906020019092919080359060200190640100000000811115610cce57600080fd5b820183602082011115610ce057600080fd5b80359060200191846001830284011164010000000083111715610d0257600080fd5b91908080601f016020809104026020016040519081016040528093929190818152602001838380828437600081840152601f19601f8201169050808301925050505050505091929192905050506121bf565b005b348015610d6257600080fd5b50610da560048036036020811015610d7957600080fd5b81019080803573ffffffffffffffffffffffffffffffffffffffff169060200190929190505050612293565b6040518082815260200191505060405180910390f35b348015610dc757600080fd5b50610dd0612349565b6040518080602001828103825283818151815260200191508051906020019080838360005b83811015610e10578082015181840152602081019050610df5565b50505050905090810190601f168015610e3d5780820380516001836020036101000a031916815260200191505b509250505060405180910390f35b60011515600b60003373ffffffffffffffffffffffffffffffffffffffff1673ffffffffffffffffffffffffffffffffffffffff16815260200190815260200160002060040160009054906101000a900460ff161515141515610f16576040517f08c379a00000000000000000000000000000000000000000000000000000000081526004018080602001828103825260188152602001807f444f45535f4e4f545f484156455f41444d494e5f524f4c45000000000000000081525060200191505060405180910390fd5b610f1e61246d565b83816000019073ffffffffffffffffffffffffffffffffffffffff16908173ffffffffffffffffffffffffffffffffffffffff16815250508281602001819052508181604001819052506000816060018181525050600181608001901515908115158152505060008160a001901515908115158152505080600b60008673ffffffffffffffffffffffffffffffffffffffff1673ffffffffffffffffffffffffffffffffffffffff16815260200190815260200160002060008201518160000160006101000a81548173ffffffffffffffffffffffffffffffffffffffff021916908373ffffffffffffffffffffffffffffffffffffffff16021790555060208201518160010190805190602001906110389291906124be565b5060408201518160020190805190602001906110559291906124be565b506060820151816003015560808201518160040160006101000a81548160ff02191690831515021790555060a08201518160040160016101000a81548160ff021916908315150217905550905050600e8490806001815401808255809150509060018203906000526020600020016000909192909190916101000a81548173ffffffffffffffffffffffffffffffffffffffff021916908373ffffffffffffffffffffffffffffffffffffffff1602179055505050505050565b600b6020528060005260406000206000915090508060000160009054906101000a900473ffffffffffffffffffffffffffffffffffffffff1690806001018054600181600116156101000203166002900480601f0160208091040260200160405190810160405280929190818152602001828054600181600116156101000203166002900480156111e15780601f106111b6576101008083540402835291602001916111e1565b820191906000526020600020905b8154815290600101906020018083116111c457829003601f168201915b505050505090806002018054600181600116156101000203166002900480601f01602080910402602001604051908101604052809291908181526020018280546001816001161561010002031660029004801561127f5780601f106112545761010080835404028352916020019161127f565b820191906000526020600020905b81548152906001019060200180831161126257829003601f168201915b5050505050908060030154908060040160009054906101000a900460ff16908060040160019054906101000a900460ff16905086565b60003073ffffffffffffffffffffffffffffffffffffffff1631905090565b60011515600b60003373ffffffffffffffffffffffffffffffffffffffff1673ffffffffffffffffffffffffffffffffffffffff16815260200190815260200160002060040160009054906101000a900460ff16151514151561133657600080fd5b5050565b6000600b60003373ffffffffffffffffffffffffffffffffffffffff1673ffffffffffffffffffffffffffffffffffffffff16815260200190815260200160002090506000600a600085815260200190815260200160002090506000600d600086815260200190815260200160002090508360ff16816003016000828254019250508190555060018160020160008282540192505081905550600183600701600087815260200190815260200160002060006101000a81548160ff0219169083151502179055508360ff16836008016000878152602001908152602001600020819055506007548160020154141561158e576000611437826123e7565b90506001151581151514156115655760008360020160009054906101000a900473ffffffffffffffffffffffffffffffffffffffff1690508360030154846008015401846009015411156114ed578073ffffffffffffffffffffffffffffffffffffffff166108fc606486600a01548760060154028115156114b557fe5b048660060154039081150290604051600060405180830381858888f193505050501580156114e7573d6000803e3d6000fd5b50611539565b8073ffffffffffffffffffffffffffffffffffffffff166108fc85600601549081150290604051600060405180830381858888f19350505050158015611537573d6000803e3d6000fd5b505b60038460000160006101000a81548160ff0219169083600481111561155a57fe5b02179055505061158c565b60018360000160006101000a81548160ff0219169083600481111561158657fe5b02179055505b505b5050505050565b60048054600181600116156101000203166002900480601f01602080910402602001604051908101604052809291908181526020018280546001816001161561010002031660029004801561162b5780601f106116005761010080835404028352916020019161162b565b820191906000526020600020905b81548152906001019060200180831161160e57829003601f168201915b505050505081565b60065481565b60055481565b60028054600181600116156101000203166002900480601f0160208091040260200160405190810160405280929190818152602001828054600181600116156101000203166002900480156116d55780601f106116aa576101008083540402835291602001916116d5565b820191906000526020600020905b8154815290600101906020018083116116b857829003601f168201915b505050505081565b60095481565b600080600e8054905090507fcc02804c85114b13dd8f5376a7425dd55715cf419f9bc7f8942003a11b5824c5816040518082815260200191505060405180910390a18091505090565b6000600115156000809054906101000a900460ff16151514151561174f57600080fd5b60011515600b60003373ffffffffffffffffffffffffffffffffffffffff1673ffffffffffffffffffffffffffffffffffffffff16815260200190815260200160002060040160009054906101000a900460ff1615151415156117b157600080fd5b6117b961253e565b87816040019073ffffffffffffffffffffffffffffffffffffffff16908173ffffffffffffffffffffffffffffffffffffffff168152505086816060018181525050858160800181905250848160a001818152505060008160000190600481111561182057fe5b9081600481111561182d57fe5b81525050838160c00181815250506000888742604051602001808473ffffffffffffffffffffffffffffffffffffffff1673ffffffffffffffffffffffffffffffffffffffff166c0100000000000000000000000002815260140183805190602001908083835b6020831015156118b95780518252602082019150602081019050602083039250611894565b6001836020036101000a038019825116818451168082178552505050505050905001828152602001935050505060405160208183030381529060405280519060200120905080826020018181525050838261014001818152505081600a600083815260200190815260200160002060008201518160000160006101000a81548160ff0219169083600481111561194b57fe5b02179055506020820151816001015560408201518160020160006101000a81548173ffffffffffffffffffffffffffffffffffffffff021916908373ffffffffffffffffffffffffffffffffffffffff1602179055506060820151816003015560808201518160040190805190602001906119c79291906124be565b5060a0820151816005015560c0820151816006015560e082015181600701556101008201518160080155610120820151816009015561014082015181600a015561016082015181600b019080519060200190611a249291906124be565b509050507f31038b33714cfb183863b924f0c8645cbb924d3e4817eb07bcb47da1d20a8130816040518082815260200191505060405180910390a180925050509695505050505050565b60018160ff1611151515611a8157600080fd5b600b60003373ffffffffffffffffffffffffffffffffffffffff1673ffffffffffffffffffffffffffffffffffffffff16815260200190815260200160002060040160019054906101000a900460ff161515611adc57600080fd5b60001515600b60003373ffffffffffffffffffffffffffffffffffffffff1673ffffffffffffffffffffffffffffffffffffffff168152602001908152602001600020600501600084815260200190815260200160002060009054906101000a900460ff161515141515611b4f57600080fd5b6000600b60003373ffffffffffffffffffffffffffffffffffffffff1673ffffffffffffffffffffffffffffffffffffffff16815260200190815260200160002090506000600d600085815260200190815260200160002090506000600a600086815260200190815260200160002090508360ff16826001016000828254019250508190555060018260000160008282540192505081905550600183600501600087815260200190815260200160002060006101000a81548160ff0219169083151502179055508360ff168360060160008781526020019081526020016000208190555060075482600001541415611d2d576000611c4c8361241c565b9050600115158115151415611d045760008260020160009054906101000a900473ffffffffffffffffffffffffffffffffffffffff1690508073ffffffffffffffffffffffffffffffffffffffff166108fc84600501549081150290604051600060405180830381858888f19350505050158015611cce573d6000803e3d6000fd5b5042836008018190555060018360000160006101000a81548160ff02191690836004811115611cf957fe5b021790555050611d2b565b60048260000160006101000a81548160ff02191690836004811115611d2557fe5b02179055505b505b5050505050565b600d6020528060005260406000206000915090508060000154908060010154908060020154908060030154905084565b60075481565b6000809054906101000a900460ff1681565b60085481565b600c6020528060005260406000206000915054906101000a900460ff1681565b60018054600181600116156101000203166002900480601f016020809104026020016040519081016040528092919081815260200182805460018160011615610100020316600290048015611e385780601f10611e0d57610100808354040283529160200191611e38565b820191906000526020600020905b815481529060010190602001808311611e1b57829003601f168201915b505050505081565b600e81815481101515611e4f57fe5b906000526020600020016000915054906101000a900473ffffffffffffffffffffffffffffffffffffffff1681565b60001515600b60003373ffffffffffffffffffffffffffffffffffffffff1673ffffffffffffffffffffffffffffffffffffffff16815260200190815260200160002060040160019054906101000a900460ff161515141515611ee057600080fd5b34600b60003373ffffffffffffffffffffffffffffffffffffffff1673ffffffffffffffffffffffffffffffffffffffff16815260200190815260200160002060030160008282540192505081905550600554600b60003373ffffffffffffffffffffffffffffffffffffffff1673ffffffffffffffffffffffffffffffffffffffff16815260200190815260200160002060030154101515612000576001600b60003373ffffffffffffffffffffffffffffffffffffffff1673ffffffffffffffffffffffffffffffffffffffff16815260200190815260200160002060040160016101000a81548160ff0219169083151502179055506001600760008282540192505081905550600654600754101515611fff57611ffe612451565b5b5b565b600a6020528060005260406000206000915090508060000160009054906101000a900460ff16908060010154908060020160009054906101000a900473ffffffffffffffffffffffffffffffffffffffff1690806003015490806004018054600181600116156101000203166002900480601f0160208091040260200160405190810160405280929190818152602001828054600181600116156101000203166002900480156120f35780601f106120c8576101008083540402835291602001916120f3565b820191906000526020600020905b8154815290600101906020018083116120d657829003601f168201915b50505050509080600501549080600601549080600701549080600801549080600901549080600a01549080600b018054600181600116156101000203166002900480601f0160208091040260200160405190810160405280929190818152602001828054600181600116156101000203166002900480156121b55780601f1061218a576101008083540402835291602001916121b5565b820191906000526020600020905b81548152906001019060200180831161219857829003601f168201915b505050505090508c565b3373ffffffffffffffffffffffffffffffffffffffff16600a600084815260200190815260200160002060020160009054906101000a900473ffffffffffffffffffffffffffffffffffffffff1673ffffffffffffffffffffffffffffffffffffffff1614151561222f57600080fd5b6000600a600084815260200190815260200160002090508181600b01908051906020019061225e9291906125c4565b5042816009018190555060028160000160006101000a81548160ff0219169083600481111561228957fe5b0217905550505050565b600060011515600b60008473ffffffffffffffffffffffffffffffffffffffff1673ffffffffffffffffffffffffffffffffffffffff16815260200190815260200160002060040160019054906101000a900460ff16151514156122fa5760009050612344565b600b60008373ffffffffffffffffffffffffffffffffffffffff1673ffffffffffffffffffffffffffffffffffffffff168152602001908152602001600020600301546005540390505b919050565b60038054600181600116156101000203166002900480601f0160208091040260200160405190810160405280929190818152602001828054600181600116156101000203166002900480156123df5780601f106123b4576101008083540402835291602001916123df565b820191906000526020600020905b8154815290600101906020018083116123c257829003601f168201915b505050505081565b600060646009548360020154028115156123fd57fe5b04826003015410156124125760009050612417565b600190505b919050565b6000606460095483600001540281151561243257fe5b0482600101541015612447576000905061244c565b600190505b919050565b60016000806101000a81548160ff021916908315150217905550565b60c060405190810160405280600073ffffffffffffffffffffffffffffffffffffffff1681526020016060815260200160608152602001600081526020016000151581526020016000151581525090565b828054600181600116156101000203166002900490600052602060002090601f016020900481019282601f106124ff57805160ff191683800117855561252d565b8280016001018555821561252d579182015b8281111561252c578251825591602001919060010190612511565b5b50905061253a9190612644565b5090565b610180604051908101604052806000600481111561255857fe5b815260200160008019168152602001600073ffffffffffffffffffffffffffffffffffffffff1681526020016000815260200160608152602001600081526020016000815260200160008152602001600081526020016000815260200160008152602001606081525090565b828054600181600116156101000203166002900490600052602060002090601f016020900481019282601f1061260557805160ff1916838001178555612633565b82800160010185558215612633579182015b82811115612632578251825591602001919060010190612617565b5b5090506126409190612644565b5090565b61266691905b8082111561266257600081600090555060010161264a565b5090565b9056fea165627a7a723058203d6825cc9c336401b80cd290de09e0a0652058ef415a63eafa8a756d1d36b5190029",
  "source": "pragma solidity ^0.5.2;\n\nimport \"./SafeMath.sol\";\n\ncontract Project {\n\n    using SafeMath for uint;\n\n    bool public initiated;\n    string public githubRepo;\n    string public purpose;\n    string public arbitraryRequirements;\n    string public legalContractUrl;\n    uint public requiredInvestment;\n    uint public requiredNumberPaid;\n    uint public numberPaid;\n    uint public projectNum;\n    uint public quorumPct;\n\n    enum TaskStatus { proposed, inProgress, evidenceUnderReview, complete, rejected }\n\n    struct Task {\n        TaskStatus status;\n        bytes32 taskId;\n        address payable owner;\n        uint duration; //seconds\n        string requirementsGitCommitHash; //git commit hash \"36c989247e49df868ff6b990ede7bcfe7c94b5bd\"\n        uint budget; // wei or dai?\n        uint reward;\n        uint votePercentage;\n        uint taskStart;\n        uint submissionTime;\n        uint latePenalty; // percent to deduct from reward if late.\n        string evidenceGitCommit;\n    }\n\n    struct TaskVote {\n        uint numVotedProposal;\n        uint proposalYesVotes;\n        uint numVotedEvidence;\n        uint evidenceYesVotes;\n    }\n\n    struct Participant {\n        address ethAddress;\n        string legalName;\n        string githubUsername;\n        uint investmentValue;\n        bool initialized;\n        bool paid;\n        mapping (bytes32 => bool) taskIdToVoted;\n        mapping (bytes32 => uint) taskIdToVotes;\n        mapping (bytes32 => bool) evidenceIdToVoted;\n        mapping (bytes32 => uint) evidenceIdToVotes;\n    }\n\n    mapping(bytes32 => Task) public tasks; // bytes32 taskId  to  Task?\n    mapping(address => Participant) public participants; // mapping for participants?\n    mapping(address => bool) public paid;\n    mapping(bytes32 => TaskVote) public taskVotes; //taskId to TaskVote\n    address[] public participantsArray;\n\n    constructor (\n        string memory _githubRepo,\n        string memory _adminName,\n        string memory _adminGithubUsername,\n        string memory _purpose,\n        uint _requiredInvestment,\n        uint _requiredNumberPaid,\n        uint _quorumPct,\n        uint _projectNum\n    ) public {\n\n        Participant memory admin;\n        admin.ethAddress = tx.origin;\n        githubRepo = _githubRepo; // test validity\n        admin.legalName = _adminName;\n        admin.githubUsername = _adminGithubUsername;\n        purpose = _purpose;\n        admin.initialized = true;\n        participants[tx.origin] = admin;\n        requiredInvestment = _requiredInvestment;\n        requiredNumberPaid = _requiredNumberPaid;\n        projectNum = _projectNum;\n        quorumPct = _quorumPct;\n\n  }\n\n  function getBalance () public view returns (uint) {\n      return address(this).balance;\n  }\n\n    function addParticipant(\n        address _address,\n        string memory _legalName,\n        string memory _githubUsername\n        ) public {\n\n        require(participants[msg.sender].initialized == true, \"DOES_NOT_HAVE_ADMIN_ROLE\");\n\n        Participant memory newParticipant;\n        newParticipant.ethAddress = _address;\n        newParticipant.legalName = _legalName;\n        newParticipant.githubUsername = _githubUsername;\n        newParticipant.investmentValue = 0;\n        newParticipant.initialized = true;\n        newParticipant.paid = false;\n\n        participants[_address] = newParticipant;\n        participantsArray.push(_address);\n    }\n\n    function fund() public payable {\n        require(participants[msg.sender].paid == false);\n\n        participants[msg.sender].investmentValue += msg.value;\n\n        if (participants[msg.sender].investmentValue >= requiredInvestment) {\n            participants[msg.sender].paid = true;\n            numberPaid += 1;\n            if (numberPaid >= requiredNumberPaid) {\n                initiateProject();\n            }\n        }\n  }\n\n  function initiateProject () internal {\n      initiated = true;\n      // Here we could add much logic - disbursement of funds, etc.\n  }\n\n  function owes(address _participantAddress) public view returns (uint) {\n      if (participants[_participantAddress].paid == true) {\n          return 0;\n      } else {\n          return requiredInvestment - participants[_participantAddress].investmentValue;\n      }\n    //   return requiredInvestment\n  }\n\n\n    event taskProposed (bytes32 taskId_);\n\n\n    function proposeTask (\n        address payable _owner,\n        uint _duration, //seconds\n        string memory _requirementsGitCommitHash,\n        uint _budget,\n        uint _reward,\n        uint _latePenalty\n    ) public returns (bytes32 ) {\n\n        require(initiated == true);\n        require(participants[msg.sender].initialized == true);\n\n        Task memory newTask;\n        newTask.owner = _owner;\n        newTask.duration = _duration;\n        newTask.requirementsGitCommitHash = _requirementsGitCommitHash;\n        newTask.budget = _budget;\n        newTask.status = TaskStatus.proposed;\n        newTask.reward = _reward;\n\n        bytes32 taskId = keccak256(abi.encodePacked(_owner, _requirementsGitCommitHash, now));\n        newTask.taskId = taskId;\n        newTask.latePenalty = _latePenalty;\n        tasks[taskId] = newTask;\n\n        emit taskProposed(taskId);\n        return taskId; // necessary? Only ever called by EOA ... maybe ...\n\n  }\n\n  function voteOnTaskProposal (\n    bytes32 _taskId,\n    uint8 _vote ) public {\n\n    //  VOTING \n    // Inputs:\n    // -- bytes32 taskId = identification hash of the task\n    // -- uint8 _vote = the vote\n\n\n    // Requires\n    require(_vote <= 1); // 0 = no, 1 = yes.\n    require(participants[msg.sender].paid);\n    require(participants[msg.sender].taskIdToVoted[_taskId] == false); // unless we want the option to change votes ... which will require more logic\n\n    Participant storage participant = participants[msg.sender];\n    TaskVote storage taskForVote = taskVotes[_taskId];\n    Task storage task = tasks[_taskId];\n\n    // Voting\n    taskForVote.proposalYesVotes += _vote;\n    taskForVote.numVotedProposal += 1;\n\n    participant.taskIdToVoted[_taskId] = true;\n    participant.taskIdToVotes[_taskId] = _vote;\n\n    if (taskForVote.numVotedProposal == numberPaid) { // in this implementation,\n        bool decision = tallyTaskProposalVotes(taskForVote);\n\n        if (decision == true) {\n            address payable taskOwner = task.owner;\n            address(taskOwner).transfer(task.budget);\n            task.taskStart = now;\n              // this would be where we instantiate a new taskWallet contract controlled by task owner ...\n              // Also a risk - no logic to control if budget runs out.\n            task.status = TaskStatus.inProgress;\n\n        } else {\n            task.status = TaskStatus.rejected;\n\n        }\n    }\n}\n\nfunction voteOnEvidence(bytes32 _taskId,\n    uint8 _vote ) public {\n\n    Participant storage participant = participants[msg.sender];\n    Task storage task = tasks[_taskId];\n    TaskVote storage taskVote = taskVotes[_taskId];\n\n    // Voting\n    taskVote.evidenceYesVotes += _vote;\n    taskVote.numVotedEvidence += 1;\n\n    participant.evidenceIdToVoted[_taskId] = true;\n    participant.evidenceIdToVotes[_taskId] = _vote;\n\n    if (taskVote.numVotedEvidence == numberPaid) {\n        bool decision = tallyTaskEvidenceVotes(taskVote);\n\n        if (decision == true) {\n\n            address payable taskOwner = task.owner;\n            if (task.submissionTime > task.taskStart + task.duration) {\n                address(taskOwner).transfer(task.reward - (task.reward * task.latePenalty / 100)); // this would be where we instantiate a new taskWallet contract controlled by task owner ...\n            } else {\n                address(taskOwner).transfer(task.reward);\n            }\n            task.status = TaskStatus.complete;\n        } else {\n            task.status = TaskStatus.inProgress;\n        }\n    }\n}\n\n\n\n  function tallyTaskProposalVotes( TaskVote storage _taskToTally ) internal view returns ( bool ) {\n\n    // Based on quorum percentage set in constructor. Could also implement this for each task, or make\n    // quorum proportionate to the budget - higher-value tasks require a greater percentage of project\n    // participants to vote to reach consensus:\n    if (_taskToTally.proposalYesVotes < (_taskToTally.numVotedProposal * quorumPct / 100)) {\n        return false;\n    } else {\n        return true;\n    }\n  }\n\n  function submitEvidence ( bytes32 _taskId, string memory _evidenceGitCommitHash ) public {\n\n        require(tasks[_taskId].owner == msg.sender);\n\n        Task storage taskReceivingEvidence = tasks[_taskId];\n\n        taskReceivingEvidence.evidenceGitCommit = _evidenceGitCommitHash;\n        taskReceivingEvidence.submissionTime = now;\n        taskReceivingEvidence.status = TaskStatus.evidenceUnderReview;\n  }\n\n  function voteOnEvidence ( bytes32 _taskId, uint _evidenceVote ) public {\n        require(participants[msg.sender].initialized == true);\n\n\n\n  }\n\n  function tallyTaskEvidenceVotes( TaskVote storage _taskEvidenceToTally ) internal view returns ( bool ) {\n\n    // Based on quorum percentage set in constructor. Could also implement this for each task, or make\n    // quorum proportionate to the budget - higher-value tasks require a greater percentage of project\n    // participants to vote to reach consensus:\n    if (_taskEvidenceToTally.evidenceYesVotes < (_taskEvidenceToTally.numVotedEvidence * quorumPct / 100)) {\n        return false;\n    } else {\n        return true;\n    }\n  }\n\n  event participantsLength(uint);\n\n  function getParticipantsLength () public returns (  uint ) {\n\n        uint numParticipants = participantsArray.length;\n\n        emit participantsLength(numParticipants);\n        return numParticipants;\n        // string[] memory ps = [\"yes\", \"no\", \"why not\"];\n    //   return ( address(this), githubRepo, ps, 1);\n\n\n  }\n\n\n}\n",
  "sourcePath": "/Users/iv/Code/projects/self-sovereign-organization/docs/contracts/Project.sol",
  "compiler": {
    "name": "solc",
    "version": "0.5.2+commit.1df8f40c.Emscripten.clang"
  },
  "schemaVersion": "3.0.1",
  "updatedAt": "2019-03-12T08:50:38.394Z",
  "devdoc": {
    "methods": {}
  },
  "userdoc": {
    "methods": {}
  }
}