{
  "contractName": "AbsoluteVote",
  "abi": [
    {
      "constant": true,
      "inputs": [
        {
          "name": "",
          "type": "bytes32"
        }
      ],
      "name": "parameters",
      "outputs": [
        {
          "name": "precReq",
          "type": "uint256"
        },
        {
          "name": "voteOnBehalf",
          "type": "address"
        }
      ],
      "payable": false,
      "stateMutability": "view",
      "type": "function"
    },
    {
      "constant": true,
      "inputs": [],
      "name": "proposalsCnt",
      "outputs": [
        {
          "name": "",
          "type": "uint256"
        }
      ],
      "payable": false,
      "stateMutability": "view",
      "type": "function"
    },
    {
      "constant": true,
      "inputs": [
        {
          "name": "",
          "type": "bytes32"
        }
      ],
      "name": "proposals",
      "outputs": [
        {
          "name": "organizationId",
          "type": "bytes32"
        },
        {
          "name": "open",
          "type": "bool"
        },
        {
          "name": "callbacks",
          "type": "address"
        },
        {
          "name": "numOfChoices",
          "type": "uint256"
        },
        {
          "name": "paramsHash",
          "type": "bytes32"
        },
        {
          "name": "totalVotes",
          "type": "uint256"
        }
      ],
      "payable": false,
      "stateMutability": "view",
      "type": "function"
    },
    {
      "constant": true,
      "inputs": [],
      "name": "MAX_NUM_OF_CHOICES",
      "outputs": [
        {
          "name": "",
          "type": "uint256"
        }
      ],
      "payable": false,
      "stateMutability": "view",
      "type": "function"
    },
    {
      "constant": true,
      "inputs": [
        {
          "name": "",
          "type": "bytes32"
        }
      ],
      "name": "organizations",
      "outputs": [
        {
          "name": "",
          "type": "address"
        }
      ],
      "payable": false,
      "stateMutability": "view",
      "type": "function"
    },
    {
      "anonymous": false,
      "inputs": [
        {
          "indexed": true,
          "name": "_proposalId",
          "type": "bytes32"
        },
        {
          "indexed": false,
          "name": "_isProxyVote",
          "type": "bool"
        }
      ],
      "name": "AVVoteProposal",
      "type": "event"
    },
    {
      "anonymous": false,
      "inputs": [
        {
          "indexed": true,
          "name": "_proposalId",
          "type": "bytes32"
        },
        {
          "indexed": true,
          "name": "_organization",
          "type": "address"
        },
        {
          "indexed": false,
          "name": "_numOfChoices",
          "type": "uint256"
        },
        {
          "indexed": false,
          "name": "_proposer",
          "type": "address"
        },
        {
          "indexed": false,
          "name": "_paramsHash",
          "type": "bytes32"
        }
      ],
      "name": "NewProposal",
      "type": "event"
    },
    {
      "anonymous": false,
      "inputs": [
        {
          "indexed": true,
          "name": "_proposalId",
          "type": "bytes32"
        },
        {
          "indexed": true,
          "name": "_organization",
          "type": "address"
        },
        {
          "indexed": false,
          "name": "_decision",
          "type": "uint256"
        },
        {
          "indexed": false,
          "name": "_totalReputation",
          "type": "uint256"
        }
      ],
      "name": "ExecuteProposal",
      "type": "event"
    },
    {
      "anonymous": false,
      "inputs": [
        {
          "indexed": true,
          "name": "_proposalId",
          "type": "bytes32"
        },
        {
          "indexed": true,
          "name": "_organization",
          "type": "address"
        },
        {
          "indexed": true,
          "name": "_voter",
          "type": "address"
        },
        {
          "indexed": false,
          "name": "_vote",
          "type": "uint256"
        },
        {
          "indexed": false,
          "name": "_reputation",
          "type": "uint256"
        }
      ],
      "name": "VoteProposal",
      "type": "event"
    },
    {
      "anonymous": false,
      "inputs": [
        {
          "indexed": true,
          "name": "_proposalId",
          "type": "bytes32"
        },
        {
          "indexed": true,
          "name": "_organization",
          "type": "address"
        }
      ],
      "name": "CancelProposal",
      "type": "event"
    },
    {
      "anonymous": false,
      "inputs": [
        {
          "indexed": true,
          "name": "_proposalId",
          "type": "bytes32"
        },
        {
          "indexed": true,
          "name": "_organization",
          "type": "address"
        },
        {
          "indexed": true,
          "name": "_voter",
          "type": "address"
        }
      ],
      "name": "CancelVoting",
      "type": "event"
    },
    {
      "constant": false,
      "inputs": [
        {
          "name": "_numOfChoices",
          "type": "uint256"
        },
        {
          "name": "_paramsHash",
          "type": "bytes32"
        },
        {
          "name": "",
          "type": "address"
        },
        {
          "name": "_organization",
          "type": "address"
        }
      ],
      "name": "propose",
      "outputs": [
        {
          "name": "",
          "type": "bytes32"
        }
      ],
      "payable": false,
      "stateMutability": "nonpayable",
      "type": "function"
    },
    {
      "constant": false,
      "inputs": [
        {
          "name": "_proposalId",
          "type": "bytes32"
        },
        {
          "name": "_vote",
          "type": "uint256"
        },
        {
          "name": "_amount",
          "type": "uint256"
        },
        {
          "name": "_voter",
          "type": "address"
        }
      ],
      "name": "vote",
      "outputs": [
        {
          "name": "",
          "type": "bool"
        }
      ],
      "payable": false,
      "stateMutability": "nonpayable",
      "type": "function"
    },
    {
      "constant": false,
      "inputs": [
        {
          "name": "_proposalId",
          "type": "bytes32"
        }
      ],
      "name": "cancelVote",
      "outputs": [],
      "payable": false,
      "stateMutability": "nonpayable",
      "type": "function"
    },
    {
      "constant": false,
      "inputs": [
        {
          "name": "_proposalId",
          "type": "bytes32"
        }
      ],
      "name": "execute",
      "outputs": [
        {
          "name": "",
          "type": "bool"
        }
      ],
      "payable": false,
      "stateMutability": "nonpayable",
      "type": "function"
    },
    {
      "constant": true,
      "inputs": [
        {
          "name": "_proposalId",
          "type": "bytes32"
        }
      ],
      "name": "getNumberOfChoices",
      "outputs": [
        {
          "name": "",
          "type": "uint256"
        }
      ],
      "payable": false,
      "stateMutability": "view",
      "type": "function"
    },
    {
      "constant": true,
      "inputs": [
        {
          "name": "_proposalId",
          "type": "bytes32"
        },
        {
          "name": "_voter",
          "type": "address"
        }
      ],
      "name": "voteInfo",
      "outputs": [
        {
          "name": "",
          "type": "uint256"
        },
        {
          "name": "",
          "type": "uint256"
        }
      ],
      "payable": false,
      "stateMutability": "view",
      "type": "function"
    },
    {
      "constant": true,
      "inputs": [
        {
          "name": "_proposalId",
          "type": "bytes32"
        },
        {
          "name": "_choice",
          "type": "uint256"
        }
      ],
      "name": "voteStatus",
      "outputs": [
        {
          "name": "",
          "type": "uint256"
        }
      ],
      "payable": false,
      "stateMutability": "view",
      "type": "function"
    },
    {
      "constant": true,
      "inputs": [
        {
          "name": "_proposalId",
          "type": "bytes32"
        }
      ],
      "name": "isVotable",
      "outputs": [
        {
          "name": "",
          "type": "bool"
        }
      ],
      "payable": false,
      "stateMutability": "view",
      "type": "function"
    },
    {
      "constant": true,
      "inputs": [],
      "name": "isAbstainAllow",
      "outputs": [
        {
          "name": "",
          "type": "bool"
        }
      ],
      "payable": false,
      "stateMutability": "pure",
      "type": "function"
    },
    {
      "constant": true,
      "inputs": [],
      "name": "getAllowedRangeOfChoices",
      "outputs": [
        {
          "name": "min",
          "type": "uint256"
        },
        {
          "name": "max",
          "type": "uint256"
        }
      ],
      "payable": false,
      "stateMutability": "pure",
      "type": "function"
    },
    {
      "constant": false,
      "inputs": [
        {
          "name": "_precReq",
          "type": "uint256"
        },
        {
          "name": "_voteOnBehalf",
          "type": "address"
        }
      ],
      "name": "setParameters",
      "outputs": [
        {
          "name": "",
          "type": "bytes32"
        }
      ],
      "payable": false,
      "stateMutability": "nonpayable",
      "type": "function"
    },
    {
      "constant": true,
      "inputs": [
        {
          "name": "_precReq",
          "type": "uint256"
        },
        {
          "name": "_voteOnBehalf",
          "type": "address"
        }
      ],
      "name": "getParametersHash",
      "outputs": [
        {
          "name": "",
          "type": "bytes32"
        }
      ],
      "payable": false,
      "stateMutability": "pure",
      "type": "function"
    }
  ],
  "bytecode": "0x608060405234801561001057600080fd5b50611bf4806100206000396000f3fe608060405234801561001057600080fd5b5060043610610128576000357c01000000000000000000000000000000000000000000000000000000009004806351d997b2116100bf578063a003651d1161008e578063a003651d1461051b578063b45129131461055d578063ba51b14e146105a9578063c083510614610617578063e751f2711461065d57610128565b806351d997b21461042157806388737b5e146104435780638d22651e146104cf5780639525c0cc146104ed57610128565b8063289647e4116100fb578063289647e41461028b57806332ed5b12146102ed578063359afa49146103825780635142bc1e146103fc57610128565b8063025068041461012d578063119ce91b146101a257806321b4b3dc1461020b57806323d840f514610229575b600080fd5b6101596004803603602081101561014357600080fd5b81019080803590602001909291905050506106a3565b604051808381526020018273ffffffffffffffffffffffffffffffffffffffff1673ffffffffffffffffffffffffffffffffffffffff1681526020019250505060405180910390f35b6101ee600480360360408110156101b857600080fd5b8101908080359060200190929190803573ffffffffffffffffffffffffffffffffffffffff1690602001909291905050506106e7565b604051808381526020018281526020019250505060405180910390f35b61021361077c565b6040518082815260200191505060405180910390f35b6102756004803603604081101561023f57600080fd5b8101908080359060200190929190803573ffffffffffffffffffffffffffffffffffffffff169060200190929190505050610782565b6040518082815260200191505060405180910390f35b6102d7600480360360408110156102a157600080fd5b8101908080359060200190929190803573ffffffffffffffffffffffffffffffffffffffff169060200190929190505050610849565b6040518082815260200191505060405180910390f35b6103196004803603602081101561030357600080fd5b81019080803590602001909291905050506108bd565b60405180878152602001861515151581526020018573ffffffffffffffffffffffffffffffffffffffff1673ffffffffffffffffffffffffffffffffffffffff168152602001848152602001838152602001828152602001965050505050505060405180910390f35b6103e26004803603608081101561039857600080fd5b81019080803590602001909291908035906020019092919080359060200190929190803573ffffffffffffffffffffffffffffffffffffffff169060200190929190505050610926565b604051808215151515815260200191505060405180910390f35b610404610a99565b604051808381526020018281526020019250505060405180910390f35b610429610aab565b604051808215151515815260200191505060405180910390f35b6104b96004803603608081101561045957600080fd5b810190808035906020019092919080359060200190929190803573ffffffffffffffffffffffffffffffffffffffff169060200190929190803573ffffffffffffffffffffffffffffffffffffffff169060200190929190505050610ab4565b6040518082815260200191505060405180910390f35b6104d7610f5d565b6040518082815260200191505060405180910390f35b6105196004803603602081101561050357600080fd5b8101908080359060200190929190505050610f62565b005b6105476004803603602081101561053157600080fd5b8101908080359060200190929190505050610fa0565b6040518082815260200191505060405180910390f35b6105936004803603604081101561057357600080fd5b810190808035906020019092919080359060200190929190505050610fc0565b6040518082815260200191505060405180910390f35b6105d5600480360360208110156105bf57600080fd5b8101908080359060200190929190505050610ff2565b604051808273ffffffffffffffffffffffffffffffffffffffff1673ffffffffffffffffffffffffffffffffffffffff16815260200191505060405180910390f35b6106436004803603602081101561062d57600080fd5b8101908080359060200190929190505050611025565b604051808215151515815260200191505060405180910390f35b6106896004803603602081101561067357600080fd5b8101908080359060200190929190505050611052565b604051808215151515815260200191505060405180910390f35b60006020528060005260406000206000915090508060000154908060010160009054906101000a900473ffffffffffffffffffffffffffffffffffffffff16905082565b6000806106f2611b29565b6001600086815260200190815260200160002060060160008573ffffffffffffffffffffffffffffffffffffffff1673ffffffffffffffffffffffffffffffffffffffff1681526020019081526020016000206040805190810160405290816000820154815260200160018201548152505090508060000151816020015192509250509250929050565b60035481565b6000606483111580156107955750600083115b15156107a057600080fd5b60006107ac8484610849565b905060408051908101604052808581526020018473ffffffffffffffffffffffffffffffffffffffff168152506000808381526020019081526020016000206000820151816000015560208201518160010160006101000a81548173ffffffffffffffffffffffffffffffffffffffff021916908373ffffffffffffffffffffffffffffffffffffffff1602179055509050508091505092915050565b60008282604051602001808381526020018273ffffffffffffffffffffffffffffffffffffffff1673ffffffffffffffffffffffffffffffffffffffff166c010000000000000000000000000281526014019250505060405160208183030381529060405280519060200120905092915050565b60016020528060005260406000206000915090508060000154908060010160009054906101000a900460ff16908060010160019054906101000a900473ffffffffffffffffffffffffffffffffffffffff16908060020154908060030154908060040154905086565b6000846001600082815260200190815260200160002060010160009054906101000a900460ff16151561095857600080fd5b6000600160008881526020019081526020016000209050610977611b43565b60008083600301548152602001908152602001600020604080519081016040529081600082015481526020016001820160009054906101000a900473ffffffffffffffffffffffffffffffffffffffff1673ffffffffffffffffffffffffffffffffffffffff1673ffffffffffffffffffffffffffffffffffffffff1681525050905060008073ffffffffffffffffffffffffffffffffffffffff16826020015173ffffffffffffffffffffffffffffffffffffffff16141515610a7b57816020015173ffffffffffffffffffffffffffffffffffffffff163373ffffffffffffffffffffffffffffffffffffffff16141515610a7357600080fd5b859050610a7f565b3390505b610a8b89828a8a611095565b945050505050949350505050565b6000806000600a819150915091509091565b60006001905090565b60008060008086815260200190815260200160002060000154111515610ad957600080fd5b600085118015610aea5750600a8511155b1515610af557600080fd5b600030600354604051602001808373ffffffffffffffffffffffffffffffffffffffff1673ffffffffffffffffffffffffffffffffffffffff166c0100000000000000000000000002815260140182815260200192505050604051602081830303815290604052805190602001209050610b7b60016003546114a990919063ffffffff16565b600381905550610b89611b73565b868160600181815250508581608001818152505033816040019073ffffffffffffffffffffffffffffffffffffffff16908173ffffffffffffffffffffffffffffffffffffffff16815250503384604051602001808373ffffffffffffffffffffffffffffffffffffffff1673ffffffffffffffffffffffffffffffffffffffff166c010000000000000000000000000281526014018273ffffffffffffffffffffffffffffffffffffffff1673ffffffffffffffffffffffffffffffffffffffff166c010000000000000000000000000281526014019250505060405160208183030381529060405280519060200120816000018181525050600181602001901515908115158152505080600160008481526020019081526020016000206000820151816000015560208201518160010160006101000a81548160ff02191690831515021790555060408201518160010160016101000a81548173ffffffffffffffffffffffffffffffffffffffff021916908373ffffffffffffffffffffffffffffffffffffffff160217905550606082015181600201556080820151816003015560a08201518160040155905050600073ffffffffffffffffffffffffffffffffffffffff16600260008360000151815260200190815260200160002060009054906101000a900473ffffffffffffffffffffffffffffffffffffffff1673ffffffffffffffffffffffffffffffffffffffff161415610e8e57600073ffffffffffffffffffffffffffffffffffffffff168473ffffffffffffffffffffffffffffffffffffffff161415610e365733600260008360000151815260200190815260200160002060006101000a81548173ffffffffffffffffffffffffffffffffffffffff021916908373ffffffffffffffffffffffffffffffffffffffff160217905550610e8d565b83600260008360000151815260200190815260200160002060006101000a81548173ffffffffffffffffffffffffffffffffffffffff021916908373ffffffffffffffffffffffffffffffffffffffff1602179055505b5b600260008260000151815260200190815260200160002060009054906101000a900473ffffffffffffffffffffffffffffffffffffffff1673ffffffffffffffffffffffffffffffffffffffff16827f75b4ff136cc5de5957574c797de3334eb1c141271922b825eb071e0487ba2c5c89338a604051808481526020018373ffffffffffffffffffffffffffffffffffffffff1673ffffffffffffffffffffffffffffffffffffffff168152602001828152602001935050505060405180910390a38192505050949350505050565b600a81565b806001600082815260200190815260200160002060010160009054906101000a900460ff161515610f9257600080fd5b610f9c82336114ca565b5050565b600060016000838152602001908152602001600020600201549050919050565b600060016000848152602001908152602001600020600501600083815260200190815260200160002054905092915050565b60026020528060005260406000206000915054906101000a900473ffffffffffffffffffffffffffffffffffffffff1681565b60006001600083815260200190815260200160002060010160009054906101000a900460ff169050919050565b6000816001600082815260200190815260200160002060010160009054906101000a900460ff16151561108457600080fd5b61108d836116a7565b915050919050565b600080600160008781526020019081526020016000209050806002015484111515156110c057600080fd5b60008160010160019054906101000a900473ffffffffffffffffffffffffffffffffffffffff1673ffffffffffffffffffffffffffffffffffffffff16639588378e87896040518363ffffffff167c0100000000000000000000000000000000000000000000000000000000028152600401808373ffffffffffffffffffffffffffffffffffffffff1673ffffffffffffffffffffffffffffffffffffffff1681526020018281526020019250505060206040518083038186803b15801561118757600080fd5b505afa15801561119b573d6000803e3d6000fd5b505050506040513d60208110156111b157600080fd5b8101908080519060200190929190505050905060008111151561123c576040517f08c379a000000000000000000000000000000000000000000000000000000000815260040180806020018281038252601b8152602001807f5f766f746572206d75737420686176652072657075746174696f6e000000000081525060200191505060405180910390fd5b83811015151561124b57600080fd5b6000849050600081141561125d578190505b60008360060160008973ffffffffffffffffffffffffffffffffffffffff1673ffffffffffffffffffffffffffffffffffffffff168152602001908152602001600020600101541415156112b6576112b588886114ca565b5b6112de83600501600088815260200190815260200160002054826114a990919063ffffffff16565b8360050160008881526020019081526020016000208190555061130e8360040154826114a990919063ffffffff16565b83600401819055506040805190810160405280878152602001828152508360060160008973ffffffffffffffffffffffffffffffffffffffff1673ffffffffffffffffffffffffffffffffffffffff16815260200190815260200160002060008201518160000155602082015181600101559050508673ffffffffffffffffffffffffffffffffffffffff16600260008560000154815260200190815260200160002060009054906101000a900473ffffffffffffffffffffffffffffffffffffffff1673ffffffffffffffffffffffffffffffffffffffff16897f066c061a3792cb3eb64a441a928655fcbafb4a54b49725fe9cd2951df5e7189e8985604051808381526020018281526020019250505060405180910390a4877fe715e19c865cb724f3c292cc2fffc24d9cdd398e179fb366f008cc73028e1c523373ffffffffffffffffffffffffffffffffffffffff168973ffffffffffffffffffffffffffffffffffffffff161415604051808215151515815260200191505060405180910390a261149c886116a7565b9350505050949350505050565b60008082840190508381101515156114c057600080fd5b8091505092915050565b60006001600084815260200190815260200160002090506114e9611b29565b8160060160008473ffffffffffffffffffffffffffffffffffffffff1673ffffffffffffffffffffffffffffffffffffffff16815260200190815260200160002060408051908101604052908160008201548152602001600182015481525050905061157b81602001518360050160008460000151815260200190815260200160002054611a4190919063ffffffff16565b82600501600083600001518152602001908152602001600020819055506115b381602001518360040154611a4190919063ffffffff16565b82600401819055508160060160008473ffffffffffffffffffffffffffffffffffffffff1673ffffffffffffffffffffffffffffffffffffffff168152602001908152602001600020600080820160009055600182016000905550508273ffffffffffffffffffffffffffffffffffffffff16600260008460000154815260200190815260200160002060009054906101000a900473ffffffffffffffffffffffffffffffffffffffff1673ffffffffffffffffffffffffffffffffffffffff16857f0ecab23267930de581498fac1af19a95c888ec6583921ee9c47473e16245d3c860405160405180910390a450505050565b6000816001600082815260200190815260200160002060010160009054906101000a900460ff1615156116d957600080fd5b600060016000858152602001908152602001600020905060008160010160019054906101000a900473ffffffffffffffffffffffffffffffffffffffff1673ffffffffffffffffffffffffffffffffffffffff1663b551c373866040518263ffffffff167c01000000000000000000000000000000000000000000000000000000000281526004018082815260200191505060206040518083038186803b15801561178357600080fd5b505afa158015611797573d6000803e3d6000fd5b505050506040513d60208110156117ad57600080fd5b8101908080519060200190929190505050905060008060008460030154815260200190815260200160002060000154905060008090505b836002015481111515611a3257816064848115156117fe57fe5b0402846005016000838152602001908152602001600020541115611a2557611824611b73565b8460c06040519081016040529081600082015481526020016001820160009054906101000a900460ff161515151581526020016001820160019054906101000a900473ffffffffffffffffffffffffffffffffffffffff1673ffffffffffffffffffffffffffffffffffffffff1673ffffffffffffffffffffffffffffffffffffffff168152602001600282015481526020016003820154815260200160048201548152505090506118d588611a63565b600260008260000151815260200190815260200160002060009054906101000a900473ffffffffffffffffffffffffffffffffffffffff1673ffffffffffffffffffffffffffffffffffffffff16887f37471b9c9d295ffb1309ad070b8964700bfb7b555e8e8292d0b6cbc7dba35d108487604051808381526020018281526020019250505060405180910390a3806040015173ffffffffffffffffffffffffffffffffffffffff16639d4c162d89846040518363ffffffff167c01000000000000000000000000000000000000000000000000000000000281526004018083815260200182815260200192505050602060405180830381600087803b1580156119de57600080fd5b505af11580156119f2573d6000803e3d6000fd5b505050506040513d6020811015611a0857600080fd5b810190808051906020019092919050505096505050505050611a3b565b80806001019150506117e4565b50600094505050505b50919050565b6000828211151515611a5257600080fd5b600082840390508091505092915050565b600060016000838152602001908152602001600020905060008090505b816002015481111515611ab357816005016000828152602001908152602001600020600090558080600101915050611a80565b50600160008381526020019081526020016000206000808201600090556001820160006101000a81549060ff02191690556001820160016101000a81549073ffffffffffffffffffffffffffffffffffffffff021916905560028201600090556003820160009055600482016000905550505050565b604080519081016040528060008152602001600081525090565b604080519081016040528060008152602001600073ffffffffffffffffffffffffffffffffffffffff1681525090565b60c06040519081016040528060008019168152602001600015158152602001600073ffffffffffffffffffffffffffffffffffffffff168152602001600081526020016000801916815260200160008152509056fea165627a7a72305820cc570b1e00b1b283f96a1499527e2c40925b48f5550a470681f49e60182244030029",
  "source": "pragma solidity ^0.5.4;\n\nimport \"../Reputation.sol\";\nimport \"./IntVoteInterface.sol\";\nimport \"openzeppelin-solidity/contracts/math/SafeMath.sol\";\nimport \"./VotingMachineCallbacksInterface.sol\";\nimport \"./ProposalExecuteInterface.sol\";\n\n\ncontract AbsoluteVote is IntVoteInterface {\n    using SafeMath for uint;\n\n    struct Parameters {\n        uint256 precReq; // how many percentages required for the proposal to be passed\n        address voteOnBehalf; //if this address is set so only this address is allowed\n                              // to vote of behalf of someone else.\n    }\n\n    struct Voter {\n        uint256 vote; // 0 - 'abstain'\n        uint256 reputation; // amount of voter's reputation\n    }\n\n    struct Proposal {\n        bytes32 organizationId; // the organization Id\n        bool open; // voting open flag\n        address callbacks;\n        uint256 numOfChoices;\n        bytes32 paramsHash; // the hash of the parameters of the proposal\n        uint256 totalVotes;\n        mapping(uint=>uint) votes;\n        mapping(address=>Voter) voters;\n    }\n\n    event AVVoteProposal(bytes32 indexed _proposalId, bool _isProxyVote);\n\n    mapping(bytes32=>Parameters) public parameters;  // A mapping from hashes to parameters\n    mapping(bytes32=>Proposal) public proposals; // Mapping from the ID of the proposal to the proposal itself.\n    mapping(bytes32=>address) public organizations;\n\n    uint256 public constant MAX_NUM_OF_CHOICES = 10;\n    uint256 public proposalsCnt; // Total amount of proposals\n\n  /**\n   * @dev Check that the proposal is votable (open and not executed yet)\n   */\n    modifier votable(bytes32 _proposalId) {\n        require(proposals[_proposalId].open);\n        _;\n    }\n\n    /**\n     * @dev register a new proposal with the given parameters. Every proposal has a unique ID which is being\n     * generated by calculating keccak256 of a incremented counter.\n     * @param _numOfChoices number of voting choices\n     * @param _paramsHash defined the parameters of the voting machine used for this proposal\n     * @param _organization address\n     * @return proposal's id.\n     */\n    function propose(uint256 _numOfChoices, bytes32 _paramsHash, address, address _organization)\n        external\n        returns(bytes32)\n    {\n        // Check valid params and number of choices:\n        require(parameters[_paramsHash].precReq > 0);\n        require(_numOfChoices > 0 && _numOfChoices <= MAX_NUM_OF_CHOICES);\n        // Generate a unique ID:\n        bytes32 proposalId = keccak256(abi.encodePacked(this, proposalsCnt));\n        proposalsCnt = proposalsCnt.add(1);\n        // Open proposal:\n        Proposal memory proposal;\n        proposal.numOfChoices = _numOfChoices;\n        proposal.paramsHash = _paramsHash;\n        proposal.callbacks = msg.sender;\n        proposal.organizationId = keccak256(abi.encodePacked(msg.sender, _organization));\n        proposal.open = true;\n        proposals[proposalId] = proposal;\n        if (organizations[proposal.organizationId] == address(0)) {\n            if (_organization == address(0)) {\n                organizations[proposal.organizationId] = msg.sender;\n            } else {\n                organizations[proposal.organizationId] = _organization;\n            }\n        }\n        emit NewProposal(proposalId, organizations[proposal.organizationId], _numOfChoices, msg.sender, _paramsHash);\n        return proposalId;\n    }\n\n    /**\n     * @dev voting function\n     * @param _proposalId id of the proposal\n     * @param _vote a value between 0 to and the proposal number of choices.\n     * @param _amount the reputation amount to vote with . if _amount == 0 it will use all voter reputation.\n     * @param _voter voter address\n     * @return bool true - the proposal has been executed\n     *              false - otherwise.\n     */\n    function vote(\n        bytes32 _proposalId,\n        uint256 _vote,\n        uint256 _amount,\n        address _voter)\n        external\n        votable(_proposalId)\n        returns(bool)\n        {\n\n        Proposal storage proposal = proposals[_proposalId];\n        Parameters memory params = parameters[proposal.paramsHash];\n        address voter;\n        if (params.voteOnBehalf != address(0)) {\n            require(msg.sender == params.voteOnBehalf);\n            voter = _voter;\n        } else {\n            voter = msg.sender;\n        }\n        return internalVote(_proposalId, voter, _vote, _amount);\n    }\n\n  /**\n   * @dev Cancel the vote of the msg.sender: subtract the reputation amount from the votes\n   * and delete the voter from the proposal struct\n   * @param _proposalId id of the proposal\n   */\n    function cancelVote(bytes32 _proposalId) external votable(_proposalId) {\n        cancelVoteInternal(_proposalId, msg.sender);\n    }\n\n    /**\n      * @dev execute check if the proposal has been decided, and if so, execute the proposal\n      * @param _proposalId the id of the proposal\n      * @return bool true - the proposal has been executed\n      *              false - otherwise.\n     */\n    function execute(bytes32 _proposalId) external votable(_proposalId) returns(bool) {\n        return _execute(_proposalId);\n    }\n\n  /**\n   * @dev getNumberOfChoices returns the number of choices possible in this proposal\n   * excluding the abstain vote (0)\n   * @param _proposalId the ID of the proposal\n   * @return uint256 that contains number of choices\n   */\n    function getNumberOfChoices(bytes32 _proposalId) external view returns(uint256) {\n        return proposals[_proposalId].numOfChoices;\n    }\n\n  /**\n   * @dev voteInfo returns the vote and the amount of reputation of the user committed to this proposal\n   * @param _proposalId the ID of the proposal\n   * @param _voter the address of the voter\n   * @return uint256 vote - the voters vote\n   *        uint256 reputation - amount of reputation committed by _voter to _proposalId\n   */\n    function voteInfo(bytes32 _proposalId, address _voter) external view returns(uint, uint) {\n        Voter memory voter = proposals[_proposalId].voters[_voter];\n        return (voter.vote, voter.reputation);\n    }\n\n    /**\n     * @dev voteStatus returns the reputation voted for a proposal for a specific voting choice.\n     * @param _proposalId the ID of the proposal\n     * @param _choice the index in the\n     * @return voted reputation for the given choice\n     */\n    function voteStatus(bytes32 _proposalId, uint256 _choice) external view returns(uint256) {\n        return proposals[_proposalId].votes[_choice];\n    }\n\n    /**\n      * @dev isVotable check if the proposal is votable\n      * @param _proposalId the ID of the proposal\n      * @return bool true or false\n    */\n    function isVotable(bytes32 _proposalId) external view returns(bool) {\n        return  proposals[_proposalId].open;\n    }\n\n    /**\n     * @dev isAbstainAllow returns if the voting machine allow abstain (0)\n     * @return bool true or false\n     */\n    function isAbstainAllow() external pure returns(bool) {\n        return true;\n    }\n\n    /**\n     * @dev getAllowedRangeOfChoices returns the allowed range of choices for a voting machine.\n     * @return min - minimum number of choices\n               max - maximum number of choices\n     */\n    function getAllowedRangeOfChoices() external pure returns(uint256 min, uint256 max) {\n        return (0, MAX_NUM_OF_CHOICES);\n    }\n\n    /**\n     * @dev hash the parameters, save them if necessary, and return the hash value\n    */\n    function setParameters(uint256 _precReq, address _voteOnBehalf) public returns(bytes32) {\n        require(_precReq <= 100 && _precReq > 0);\n        bytes32 hashedParameters = getParametersHash(_precReq, _voteOnBehalf);\n        parameters[hashedParameters] = Parameters({\n            precReq: _precReq,\n            voteOnBehalf: _voteOnBehalf\n        });\n        return hashedParameters;\n    }\n\n    /**\n     * @dev hashParameters returns a hash of the given parameters\n     */\n    function getParametersHash(uint256 _precReq, address _voteOnBehalf) public pure returns(bytes32) {\n        return keccak256(abi.encodePacked(_precReq, _voteOnBehalf));\n    }\n\n    function cancelVoteInternal(bytes32 _proposalId, address _voter) internal {\n        Proposal storage proposal = proposals[_proposalId];\n        Voter memory voter = proposal.voters[_voter];\n        proposal.votes[voter.vote] = (proposal.votes[voter.vote]).sub(voter.reputation);\n        proposal.totalVotes = (proposal.totalVotes).sub(voter.reputation);\n        delete proposal.voters[_voter];\n        emit CancelVoting(_proposalId, organizations[proposal.organizationId], _voter);\n    }\n\n    function deleteProposal(bytes32 _proposalId) internal {\n        Proposal storage proposal = proposals[_proposalId];\n        for (uint256 cnt = 0; cnt <= proposal.numOfChoices; cnt++) {\n            delete proposal.votes[cnt];\n        }\n        delete proposals[_proposalId];\n    }\n\n    /**\n      * @dev execute check if the proposal has been decided, and if so, execute the proposal\n      * @param _proposalId the id of the proposal\n      * @return bool true - the proposal has been executed\n      *              false - otherwise.\n     */\n    function _execute(bytes32 _proposalId) internal votable(_proposalId) returns(bool) {\n        Proposal storage proposal = proposals[_proposalId];\n        uint256 totalReputation =\n        VotingMachineCallbacksInterface(proposal.callbacks).getTotalReputationSupply(_proposalId);\n        uint256 precReq = parameters[proposal.paramsHash].precReq;\n        // Check if someone crossed the bar:\n        for (uint256 cnt = 0; cnt <= proposal.numOfChoices; cnt++) {\n            if (proposal.votes[cnt] > (totalReputation/100)*precReq) {\n                Proposal memory tmpProposal = proposal;\n                deleteProposal(_proposalId);\n                emit ExecuteProposal(_proposalId, organizations[tmpProposal.organizationId], cnt, totalReputation);\n                return ProposalExecuteInterface(tmpProposal.callbacks).executeProposal(_proposalId, int(cnt));\n            }\n        }\n        return false;\n    }\n\n    /**\n     * @dev Vote for a proposal, if the voter already voted, cancel the last vote and set a new one instead\n     * @param _proposalId id of the proposal\n     * @param _voter used in case the vote is cast for someone else\n     * @param _vote a value between 0 to and the proposal's number of choices.\n     * @return true in case of proposal execution otherwise false\n     * throws if proposal is not open or if it has been executed\n     * NB: executes the proposal if a decision has been reached\n     */\n    function internalVote(bytes32 _proposalId, address _voter, uint256 _vote, uint256 _rep) internal returns(bool) {\n        Proposal storage proposal = proposals[_proposalId];\n        // Check valid vote:\n        require(_vote <= proposal.numOfChoices);\n        // Check voter has enough reputation:\n        uint256 reputation = VotingMachineCallbacksInterface(proposal.callbacks).reputationOf(_voter, _proposalId);\n        require(reputation > 0, \"_voter must have reputation\");\n        require(reputation >= _rep);\n        uint256 rep = _rep;\n        if (rep == 0) {\n            rep = reputation;\n        }\n        // If this voter has already voted, first cancel the vote:\n        if (proposal.voters[_voter].reputation != 0) {\n            cancelVoteInternal(_proposalId, _voter);\n        }\n        // The voting itself:\n        proposal.votes[_vote] = rep.add(proposal.votes[_vote]);\n        proposal.totalVotes = rep.add(proposal.totalVotes);\n        proposal.voters[_voter] = Voter({\n            reputation: rep,\n            vote: _vote\n        });\n        // Event:\n        emit VoteProposal(_proposalId, organizations[proposal.organizationId], _voter, _vote, rep);\n        emit AVVoteProposal(_proposalId, (_voter != msg.sender));\n        // execute the proposal if this vote was decisive:\n        return _execute(_proposalId);\n    }\n}\n",
  "sourcePath": "@daostack/infra/contracts/votingMachines/AbsoluteVote.sol",
  "compiler": {
    "name": "solc",
    "version": "0.5.4+commit.9549d8ff.Emscripten.clang"
  },
  "schemaVersion": "3.0.1",
  "updatedAt": "2019-02-28T17:43:10.504Z",
  "devdoc": {
    "methods": {
      "cancelVote(bytes32)": {
        "details": "Cancel the vote of the msg.sender: subtract the reputation amount from the votes and delete the voter from the proposal struct",
        "params": {
          "_proposalId": "id of the proposal"
        }
      },
      "execute(bytes32)": {
        "details": "execute check if the proposal has been decided, and if so, execute the proposal",
        "params": {
          "_proposalId": "the id of the proposal"
        },
        "return": "bool true - the proposal has been executed             false - otherwise."
      },
      "getAllowedRangeOfChoices()": {
        "details": "getAllowedRangeOfChoices returns the allowed range of choices for a voting machine.",
        "return": "min - minimum number of choices max - maximum number of choices"
      },
      "getNumberOfChoices(bytes32)": {
        "details": "getNumberOfChoices returns the number of choices possible in this proposal excluding the abstain vote (0)",
        "params": {
          "_proposalId": "the ID of the proposal"
        },
        "return": "uint256 that contains number of choices"
      },
      "getParametersHash(uint256,address)": {
        "details": "hashParameters returns a hash of the given parameters"
      },
      "isAbstainAllow()": {
        "details": "isAbstainAllow returns if the voting machine allow abstain (0)",
        "return": "bool true or false"
      },
      "isVotable(bytes32)": {
        "details": "isVotable check if the proposal is votable",
        "params": {
          "_proposalId": "the ID of the proposal"
        },
        "return": "bool true or false"
      },
      "propose(uint256,bytes32,address,address)": {
        "details": "register a new proposal with the given parameters. Every proposal has a unique ID which is being generated by calculating keccak256 of a incremented counter.",
        "params": {
          "_numOfChoices": "number of voting choices",
          "_organization": "address",
          "_paramsHash": "defined the parameters of the voting machine used for this proposal"
        },
        "return": "proposal's id."
      },
      "setParameters(uint256,address)": {
        "details": "hash the parameters, save them if necessary, and return the hash value"
      },
      "vote(bytes32,uint256,uint256,address)": {
        "details": "voting function",
        "params": {
          "_amount": "the reputation amount to vote with . if _amount == 0 it will use all voter reputation.",
          "_proposalId": "id of the proposal",
          "_vote": "a value between 0 to and the proposal number of choices.",
          "_voter": "voter address"
        },
        "return": "bool true - the proposal has been executed             false - otherwise."
      },
      "voteInfo(bytes32,address)": {
        "details": "voteInfo returns the vote and the amount of reputation of the user committed to this proposal",
        "params": {
          "_proposalId": "the ID of the proposal",
          "_voter": "the address of the voter"
        },
        "return": "uint256 vote - the voters vote       uint256 reputation - amount of reputation committed by _voter to _proposalId"
      },
      "voteStatus(bytes32,uint256)": {
        "details": "voteStatus returns the reputation voted for a proposal for a specific voting choice.",
        "params": {
          "_choice": "the index in the",
          "_proposalId": "the ID of the proposal"
        },
        "return": "voted reputation for the given choice"
      }
    }
  },
  "userdoc": {
    "methods": {}
  }
}