{
  "contractName": "ProjectFactory",
  "abi": [
    {
      "constant": true,
      "inputs": [
        {
          "name": "",
          "type": "uint256"
        }
      ],
      "name": "projects",
      "outputs": [
        {
          "name": "",
          "type": "address"
        }
      ],
      "payable": false,
      "stateMutability": "view",
      "type": "function",
      "signature": "0x107046bd"
    },
    {
      "inputs": [],
      "payable": false,
      "stateMutability": "nonpayable",
      "type": "constructor",
      "signature": "constructor"
    },
    {
      "anonymous": false,
      "inputs": [
        {
          "indexed": false,
          "name": "projectContractAddress_",
          "type": "uint256"
        }
      ],
      "name": "projectCreated",
      "type": "event",
      "signature": "0xf026796fc88c4c56ea811cdd7ebf46d7e963dce7d5a426de75af48b9acbe11c5"
    },
    {
      "constant": false,
      "inputs": [
        {
          "name": "_githubRepo",
          "type": "string"
        },
        {
          "name": "_adminRole",
          "type": "address"
        },
        {
          "name": "_adminName",
          "type": "string"
        },
        {
          "name": "_adminGithubUsername",
          "type": "string"
        },
        {
          "name": "_purpose",
          "type": "string"
        },
        {
          "name": "_voteInterface",
          "type": "address"
        },
        {
          "name": "_votePercentage",
          "type": "uint256"
        }
      ],
      "name": "createProject",
      "outputs": [
        {
          "name": "",
          "type": "uint256"
        }
      ],
      "payable": false,
      "stateMutability": "nonpayable",
      "type": "function",
      "signature": "0x3f19ea27"
    }
  ],
  "bytecode": "0x608060405234801561001057600080fd5b506142c0806100206000396000f3fe608060405234801561001057600080fd5b5060043610610053576000357c010000000000000000000000000000000000000000000000000000000090048063107046bd146100585780633f19ea27146100c6575b600080fd5b6100846004803603602081101561006e57600080fd5b81019080803590602001909291905050506103a4565b604051808273ffffffffffffffffffffffffffffffffffffffff1673ffffffffffffffffffffffffffffffffffffffff16815260200191505060405180910390f35b61038e600480360360e08110156100dc57600080fd5b81019080803590602001906401000000008111156100f957600080fd5b82018360208201111561010b57600080fd5b8035906020019184600183028401116401000000008311171561012d57600080fd5b91908080601f016020809104026020016040519081016040528093929190818152602001838380828437600081840152601f19601f820116905080830192505050505050509192919290803573ffffffffffffffffffffffffffffffffffffffff169060200190929190803590602001906401000000008111156101b057600080fd5b8201836020820111156101c257600080fd5b803590602001918460018302840111640100000000831117156101e457600080fd5b91908080601f016020809104026020016040519081016040528093929190818152602001838380828437600081840152601f19601f8201169050808301925050505050505091929192908035906020019064010000000081111561024757600080fd5b82018360208201111561025957600080fd5b8035906020019184600183028401116401000000008311171561027b57600080fd5b91908080601f016020809104026020016040519081016040528093929190818152602001838380828437600081840152601f19601f820116905080830192505050505050509192919290803590602001906401000000008111156102de57600080fd5b8201836020820111156102f057600080fd5b8035906020019184600183028401116401000000008311171561031257600080fd5b91908080601f016020809104026020016040519081016040528093929190818152602001838380828437600081840152601f19601f820116905080830192505050505050509192919290803573ffffffffffffffffffffffffffffffffffffffff169060200190929190803590602001909291905050506103e2565b6040518082815260200191505060405180910390f35b6001818154811015156103b357fe5b906000526020600020016000915054906101000a900473ffffffffffffffffffffffffffffffffffffffff1681565b600080888888888888886000546040516103fb906106fc565b80806020018973ffffffffffffffffffffffffffffffffffffffff1673ffffffffffffffffffffffffffffffffffffffff1681526020018060200180602001806020018873ffffffffffffffffffffffffffffffffffffffff1673ffffffffffffffffffffffffffffffffffffffff16815260200187815260200186815260200185810385528d818151815260200191508051906020019080838360005b838110156104b4578082015181840152602081019050610499565b50505050905090810190601f1680156104e15780820380516001836020036101000a031916815260200191505b5085810384528b818151815260200191508051906020019080838360005b8381101561051a5780820151818401526020810190506104ff565b50505050905090810190601f1680156105475780820380516001836020036101000a031916815260200191505b5085810383528a818151815260200191508051906020019080838360005b83811015610580578082015181840152602081019050610565565b50505050905090810190601f1680156105ad5780820380516001836020036101000a031916815260200191505b50858103825289818151815260200191508051906020019080838360005b838110156105e65780820151818401526020810190506105cb565b50505050905090810190601f1680156106135780820380516001836020036101000a031916815260200191505b509c50505050505050505050505050604051809103906000f08015801561063e573d6000803e3d6000fd5b50905060018190806001815401808255809150509060018203906000526020600020016000909192909190916101000a81548173ffffffffffffffffffffffffffffffffffffffff021916908373ffffffffffffffffffffffffffffffffffffffff160217905550506001600054016000819055507ff026796fc88c4c56ea811cdd7ebf46d7e963dce7d5a426de75af48b9acbe11c560646040518082815260200191505060405180910390a1600054915050979650505050505050565b613b8b8061070a8339019056fe60806040523480156200001157600080fd5b5060405162003b8b38038062003b8b83398101806040526101008110156200003857600080fd5b8101908080516401000000008111156200005157600080fd5b828101905060208101848111156200006857600080fd5b81518560018202830111640100000000821117156200008657600080fd5b5050929190602001805190602001909291908051640100000000811115620000ad57600080fd5b82810190506020810184811115620000c457600080fd5b8151856001820283011164010000000082111715620000e257600080fd5b50509291906020018051640100000000811115620000ff57600080fd5b828101905060208101848111156200011657600080fd5b81518560018202830111640100000000821117156200013457600080fd5b505092919060200180516401000000008111156200015157600080fd5b828101905060208101848111156200016857600080fd5b81518560018202830111640100000000821117156200018657600080fd5b5050929190602001805190602001909291908051906020019092919080519060200190929190505050620001b962000347565b32816000019073ffffffffffffffffffffffffffffffffffffffff16908173ffffffffffffffffffffffffffffffffffffffff168152505086816020018190525085816040018190525080600f60008a73ffffffffffffffffffffffffffffffffffffffff1673ffffffffffffffffffffffffffffffffffffffff16815260200190815260200160002060008201518160000160006101000a81548173ffffffffffffffffffffffffffffffffffffffff021916908373ffffffffffffffffffffffffffffffffffffffff1602179055506020820151816001019080519060200190620002a892919062000396565b506040820151816002019080519060200190620002c792919062000396565b506060820151816003015560808201518160040160006101000a81548160ff02191690831515021790555060a082015181600501559050508860079080519060200190620003179291906200041d565b508460089080519060200190620003309291906200041d565b5081600b81905550505050505050505050620004cc565b60c060405190810160405280600073ffffffffffffffffffffffffffffffffffffffff168152602001606081526020016060815260200160008152602001600015158152602001600081525090565b828054600181600116156101000203166002900490600052602060002090601f016020900481019282601f10620003d957805160ff19168380011785556200040a565b828001600101855582156200040a579182015b8281111562000409578251825591602001919060010190620003ec565b5b509050620004199190620004a4565b5090565b828054600181600116156101000203166002900490600052602060002090601f016020900481019282601f106200046057805160ff191683800117855562000491565b8280016001018555821562000491579182015b828111156200049057825182559160200191906001019062000473565b5b509050620004a09190620004a4565b5090565b620004c991905b80821115620004c5576000816000905550600101620004ab565b5090565b90565b6136af80620004dc6000396000f3fe608060405234801561001057600080fd5b5060043610610190576000357c01000000000000000000000000000000000000000000000000000000009004806370740aab116100fb578063a003651d116100b4578063ba51b14e1161008e578063ba51b14e146108e2578063c083510614610950578063e751f27114610996578063f48a0b31146109dc57610190565b8063a003651d146107d1578063a7612edf14610813578063b45129131461089657610190565b806370740aab1461053d57806383233292146105c057806388737b5e146106d75780638d22651e146107635780639525c0cc146107815780639f118536146107af57610190565b806327199d6c1161014d57806327199d6c1461034d578063289647e41461038557806332ed5b12146103e7578063359afa491461047c5780635142bc1e146104f657806351d997b21461051b57610190565b80630250680414610195578063065953191461020a578063119ce91b146102425780631e5f246d146102ab57806321b4b3dc146102cd57806323d840f5146102eb575b600080fd5b6101c1600480360360208110156101ab57600080fd5b8101908080359060200190929190505050610ab5565b604051808381526020018273ffffffffffffffffffffffffffffffffffffffff1673ffffffffffffffffffffffffffffffffffffffff1681526020019250505060405180910390f35b6102406004803603604081101561022057600080fd5b810190808035906020019092919080359060200190929190505050610af9565b005b61028e6004803603604081101561025857600080fd5b8101908080359060200190929190803573ffffffffffffffffffffffffffffffffffffffff16906020019092919050505061108e565b604051808381526020018281526020019250505060405180910390f35b6102b3611123565b604051808215151515815260200191505060405180910390f35b6102d561112c565b6040518082815260200191505060405180910390f35b6103376004803603604081101561030157600080fd5b8101908080359060200190929190803573ffffffffffffffffffffffffffffffffffffffff169060200190929190505050611132565b6040518082815260200191505060405180910390f35b6103836004803603604081101561036357600080fd5b8101908080359060200190929190803590602001909291905050506111f9565b005b6103d16004803603604081101561039b57600080fd5b8101908080359060200190929190803573ffffffffffffffffffffffffffffffffffffffff1690602001909291905050506117a7565b6040518082815260200191505060405180910390f35b610413600480360360208110156103fd57600080fd5b810190808035906020019092919050505061181b565b60405180878152602001861515151581526020018573ffffffffffffffffffffffffffffffffffffffff1673ffffffffffffffffffffffffffffffffffffffff168152602001848152602001838152602001828152602001965050505050505060405180910390f35b6104dc6004803603608081101561049257600080fd5b81019080803590602001909291908035906020019092919080359060200190929190803573ffffffffffffffffffffffffffffffffffffffff169060200190929190505050611884565b604051808215151515815260200191505060405180910390f35b6104fe6119f7565b604051808381526020018281526020019250505060405180910390f35b610523611a09565b604051808215151515815260200191505060405180910390f35b610545611a12565b6040518080602001828103825283818151815260200191508051906020019080838360005b8381101561058557808201518184015260208101905061056a565b50505050905090810190601f1680156105b25780820380516001836020036101000a031916815260200191505b509250505060405180910390f35b6106c1600480360360c08110156105d657600080fd5b81019080803573ffffffffffffffffffffffffffffffffffffffff169060200190929190803590602001909291908035906020019064010000000081111561061d57600080fd5b82018360208201111561062f57600080fd5b8035906020019184600183028401116401000000008311171561065157600080fd5b91908080601f016020809104026020016040519081016040528093929190818152602001838380828437600081840152601f19601f820116905080830192505050505050509192919290803590602001909291908035906020019092919080359060200190929190505050611ab0565b6040518082815260200191505060405180910390f35b61074d600480360360808110156106ed57600080fd5b810190808035906020019092919080359060200190929190803573ffffffffffffffffffffffffffffffffffffffff169060200190929190803573ffffffffffffffffffffffffffffffffffffffff169060200190929190505050611e51565b6040518082815260200191505060405180910390f35b61076b6122fa565b6040518082815260200191505060405180910390f35b6107ad6004803603602081101561079757600080fd5b81019080803590602001909291905050506122ff565b005b6107b761233d565b604051808215151515815260200191505060405180910390f35b6107fd600480360360208110156107e757600080fd5b8101908080359060200190929190505050612350565b6040518082815260200191505060405180910390f35b61081b612370565b6040518080602001828103825283818151815260200191508051906020019080838360005b8381101561085b578082015181840152602081019050610840565b50505050905090810190601f1680156108885780820380516001836020036101000a031916815260200191505b509250505060405180910390f35b6108cc600480360360408110156108ac57600080fd5b81019080803590602001909291908035906020019092919050505061240e565b6040518082815260200191505060405180910390f35b61090e600480360360208110156108f857600080fd5b8101908080359060200190929190505050612440565b604051808273ffffffffffffffffffffffffffffffffffffffff1673ffffffffffffffffffffffffffffffffffffffff16815260200191505060405180910390f35b61097c6004803603602081101561096657600080fd5b8101908080359060200190929190505050612473565b604051808215151515815260200191505060405180910390f35b6109c2600480360360208110156109ac57600080fd5b81019080803590602001909291905050506124a0565b604051808215151515815260200191505060405180910390f35b610a9f600480360360408110156109f257600080fd5b810190808035906020019092919080359060200190640100000000811115610a1957600080fd5b820183602082011115610a2b57600080fd5b80359060200191846001830284011164010000000083111715610a4d57600080fd5b91908080601f016020809104026020016040519081016040528093929190818152602001838380828437600081840152601f19601f8201169050808301925050505050505091929192905050506124e3565b6040518082815260200191505060405180910390f35b60006020528060005260406000206000915090508060000154908060010160009054906101000a900473ffffffffffffffffffffffffffffffffffffffff16905082565b610b01613478565b600e600084815260200190815260200160002061014060405190810160405290816000820160009054906101000a900460ff166002811115610b3f57fe5b6002811115610b4a57fe5b8152602001600182015481526020016002820160009054906101000a900473ffffffffffffffffffffffffffffffffffffffff1673ffffffffffffffffffffffffffffffffffffffff1673ffffffffffffffffffffffffffffffffffffffff16815260200160038201548152602001600482018054600181600116156101000203166002900480601f016020809104026020016040519081016040528092919081815260200182805460018160011615610100020316600290048015610c515780601f10610c2657610100808354040283529160200191610c51565b820191906000526020600020905b815481529060010190602001808311610c3457829003601f168201915b5050505050815260200160058201548152602001600682015481526020016007820154815260200160088201548152602001600982018054600181600116156101000203166002900480601f016020809104026020016040519081016040528092919081815260200182805460018160011615610100020316600290048015610d1b5780601f10610cf057610100808354040283529160200191610d1b565b820191906000526020600020905b815481529060010190602001808311610cfe57829003601f168201915b5050505050815250509050610d2e6134f0565b600f60003373ffffffffffffffffffffffffffffffffffffffff1673ffffffffffffffffffffffffffffffffffffffff16815260200190815260200160002060c060405190810160405290816000820160009054906101000a900473ffffffffffffffffffffffffffffffffffffffff1673ffffffffffffffffffffffffffffffffffffffff1673ffffffffffffffffffffffffffffffffffffffff168152602001600182018054600181600116156101000203166002900480601f016020809104026020016040519081016040528092919081815260200182805460018160011615610100020316600290048015610e685780601f10610e3d57610100808354040283529160200191610e68565b820191906000526020600020905b815481529060010190602001808311610e4b57829003601f168201915b50505050508152602001600282018054600181600116156101000203166002900480601f016020809104026020016040519081016040528092919081815260200182805460018160011615610100020316600290048015610f0a5780601f10610edf57610100808354040283529160200191610f0a565b820191906000526020600020905b815481529060010190602001808311610eed57829003601f168201915b50505050508152602001600382015481526020016004820160009054906101000a900460ff161515151581526020016005820154815250509050600083905060008260a00151905060003390506000600460009054906101000a900473ffffffffffffffffffffffffffffffffffffffff1673ffffffffffffffffffffffffffffffffffffffff1663359afa49898686866040518563ffffffff167c0100000000000000000000000000000000000000000000000000000000028152600401808581526020018481526020018381526020018273ffffffffffffffffffffffffffffffffffffffff1673ffffffffffffffffffffffffffffffffffffffff168152602001945050505050602060405180830381600087803b15801561102e57600080fd5b505af1158015611042573d6000803e3d6000fd5b505050506040513d602081101561105857600080fd5b810190808051906020019092919050505090506000601160008a8152602001908152602001600020549050505050505050505050565b60008061109961353f565b6001600086815260200190815260200160002060060160008573ffffffffffffffffffffffffffffffffffffffff1673ffffffffffffffffffffffffffffffffffffffff1681526020019081526020016000206040805190810160405290816000820154815260200160018201548152505090508060000151816020015192509250509250929050565b60006001905090565b60035481565b6000606483111580156111455750600083115b151561115057600080fd5b600061115c84846117a7565b905060408051908101604052808581526020018473ffffffffffffffffffffffffffffffffffffffff168152506000808381526020019081526020016000206000820151816000015560208201518160010160006101000a81548173ffffffffffffffffffffffffffffffffffffffff021916908373ffffffffffffffffffffffffffffffffffffffff1602179055509050508091505092915050565b600060126000848152602001908152602001600020549050611219613478565b600e600083815260200190815260200160002061014060405190810160405290816000820160009054906101000a900460ff16600281111561125757fe5b600281111561126257fe5b8152602001600182015481526020016002820160009054906101000a900473ffffffffffffffffffffffffffffffffffffffff1673ffffffffffffffffffffffffffffffffffffffff1673ffffffffffffffffffffffffffffffffffffffff16815260200160038201548152602001600482018054600181600116156101000203166002900480601f0160208091040260200160405190810160405280929190818152602001828054600181600116156101000203166002900480156113695780601f1061133e57610100808354040283529160200191611369565b820191906000526020600020905b81548152906001019060200180831161134c57829003601f168201915b5050505050815260200160058201548152602001600682015481526020016007820154815260200160088201548152602001600982018054600181600116156101000203166002900480601f0160208091040260200160405190810160405280929190818152602001828054600181600116156101000203166002900480156114335780601f1061140857610100808354040283529160200191611433565b820191906000526020600020905b81548152906001019060200180831161141657829003601f168201915b50505050508152505090506114466134f0565b600f60003373ffffffffffffffffffffffffffffffffffffffff1673ffffffffffffffffffffffffffffffffffffffff16815260200190815260200160002060c060405190810160405290816000820160009054906101000a900473ffffffffffffffffffffffffffffffffffffffff1673ffffffffffffffffffffffffffffffffffffffff1673ffffffffffffffffffffffffffffffffffffffff168152602001600182018054600181600116156101000203166002900480601f0160208091040260200160405190810160405280929190818152602001828054600181600116156101000203166002900480156115805780601f1061155557610100808354040283529160200191611580565b820191906000526020600020905b81548152906001019060200180831161156357829003601f168201915b50505050508152602001600282018054600181600116156101000203166002900480601f0160208091040260200160405190810160405280929190818152602001828054600181600116156101000203166002900480156116225780601f106115f757610100808354040283529160200191611622565b820191906000526020600020905b81548152906001019060200180831161160557829003601f168201915b50505050508152602001600382015481526020016004820160009054906101000a900460ff161515151581526020016005820154815250509050600084905060008260a00151905060003390506000600460009054906101000a900473ffffffffffffffffffffffffffffffffffffffff1673ffffffffffffffffffffffffffffffffffffffff1663359afa49888686866040518563ffffffff167c0100000000000000000000000000000000000000000000000000000000028152600401808581526020018481526020018381526020018273ffffffffffffffffffffffffffffffffffffffff1673ffffffffffffffffffffffffffffffffffffffff168152602001945050505050602060405180830381600087803b15801561174657600080fd5b505af115801561175a573d6000803e3d6000fd5b505050506040513d602081101561177057600080fd5b8101908080519060200190929190505050905060006011600089815260200190815260200160002054905050505050505050505050565b60008282604051602001808381526020018273ffffffffffffffffffffffffffffffffffffffff1673ffffffffffffffffffffffffffffffffffffffff166c010000000000000000000000000281526014019250505060405160208183030381529060405280519060200120905092915050565b60016020528060005260406000206000915090508060000154908060010160009054906101000a900460ff16908060010160019054906101000a900473ffffffffffffffffffffffffffffffffffffffff16908060020154908060030154908060040154905086565b6000846001600082815260200190815260200160002060010160009054906101000a900460ff1615156118b657600080fd5b60006001600088815260200190815260200160002090506118d5613559565b60008083600301548152602001908152602001600020604080519081016040529081600082015481526020016001820160009054906101000a900473ffffffffffffffffffffffffffffffffffffffff1673ffffffffffffffffffffffffffffffffffffffff1673ffffffffffffffffffffffffffffffffffffffff1681525050905060008073ffffffffffffffffffffffffffffffffffffffff16826020015173ffffffffffffffffffffffffffffffffffffffff161415156119d957816020015173ffffffffffffffffffffffffffffffffffffffff163373ffffffffffffffffffffffffffffffffffffffff161415156119d157600080fd5b8590506119dd565b3390505b6119e989828a8a612893565b945050505050949350505050565b6000806000600a819150915091509091565b60006001905090565b60088054600181600116156101000203166002900480601f016020809104026020016040519081016040528092919081815260200182805460018160011615610100020316600290048015611aa85780601f10611a7d57610100808354040283529160200191611aa8565b820191906000526020600020905b815481529060010190602001808311611a8b57829003601f168201915b505050505081565b600060011515600660009054906101000a900460ff161515141515611ad457600080fd5b60011515600f60003373ffffffffffffffffffffffffffffffffffffffff1673ffffffffffffffffffffffffffffffffffffffff16815260200190815260200160002060040160009054906101000a900460ff161515141515611b3657600080fd5b611b3e613478565b87816040019073ffffffffffffffffffffffffffffffffffffffff16908173ffffffffffffffffffffffffffffffffffffffff168152505086816060018181525050858160800181905250848160a0018181525050600081600001906002811115611ba557fe5b90816002811115611bb257fe5b81525050838160c001818152505060008390506000600190506000600460009054906101000a900473ffffffffffffffffffffffffffffffffffffffff1673ffffffffffffffffffffffffffffffffffffffff166388737b5e8360055433306040518563ffffffff167c0100000000000000000000000000000000000000000000000000000000028152600401808581526020018481526020018373ffffffffffffffffffffffffffffffffffffffff1673ffffffffffffffffffffffffffffffffffffffff1681526020018273ffffffffffffffffffffffffffffffffffffffff1673ffffffffffffffffffffffffffffffffffffffff168152602001945050505050602060405180830381600087803b158015611cd057600080fd5b505af1158015611ce4573d6000803e3d6000fd5b505050506040513d6020811015611cfa57600080fd5b81019080805190602001909291905050509050611d236001600c54612ca790919063ffffffff16565b600c8190555082601160008381526020019081526020016000208190555083600e600083815260200190815260200160002060008201518160000160006101000a81548160ff02191690836002811115611d7957fe5b02179055506020820151816001015560408201518160020160006101000a81548173ffffffffffffffffffffffffffffffffffffffff021916908373ffffffffffffffffffffffffffffffffffffffff160217905550606082015181600301556080820151816004019080519060200190611df5929190613589565b5060a0820151816005015560c0820151816006015560e082015181600701556101008201518160080155610120820151816009019080519060200190611e3c929190613589565b50905050809450505050509695505050505050565b60008060008086815260200190815260200160002060000154111515611e7657600080fd5b600085118015611e875750600a8511155b1515611e9257600080fd5b600030600354604051602001808373ffffffffffffffffffffffffffffffffffffffff1673ffffffffffffffffffffffffffffffffffffffff166c0100000000000000000000000002815260140182815260200192505050604051602081830303815290604052805190602001209050611f186001600354612ca790919063ffffffff16565b600381905550611f26613609565b868160600181815250508581608001818152505033816040019073ffffffffffffffffffffffffffffffffffffffff16908173ffffffffffffffffffffffffffffffffffffffff16815250503384604051602001808373ffffffffffffffffffffffffffffffffffffffff1673ffffffffffffffffffffffffffffffffffffffff166c010000000000000000000000000281526014018273ffffffffffffffffffffffffffffffffffffffff1673ffffffffffffffffffffffffffffffffffffffff166c010000000000000000000000000281526014019250505060405160208183030381529060405280519060200120816000018181525050600181602001901515908115158152505080600160008481526020019081526020016000206000820151816000015560208201518160010160006101000a81548160ff02191690831515021790555060408201518160010160016101000a81548173ffffffffffffffffffffffffffffffffffffffff021916908373ffffffffffffffffffffffffffffffffffffffff160217905550606082015181600201556080820151816003015560a08201518160040155905050600073ffffffffffffffffffffffffffffffffffffffff16600260008360000151815260200190815260200160002060009054906101000a900473ffffffffffffffffffffffffffffffffffffffff1673ffffffffffffffffffffffffffffffffffffffff16141561222b57600073ffffffffffffffffffffffffffffffffffffffff168473ffffffffffffffffffffffffffffffffffffffff1614156121d35733600260008360000151815260200190815260200160002060006101000a81548173ffffffffffffffffffffffffffffffffffffffff021916908373ffffffffffffffffffffffffffffffffffffffff16021790555061222a565b83600260008360000151815260200190815260200160002060006101000a81548173ffffffffffffffffffffffffffffffffffffffff021916908373ffffffffffffffffffffffffffffffffffffffff1602179055505b5b600260008260000151815260200190815260200160002060009054906101000a900473ffffffffffffffffffffffffffffffffffffffff1673ffffffffffffffffffffffffffffffffffffffff16827f75b4ff136cc5de5957574c797de3334eb1c141271922b825eb071e0487ba2c5c89338a604051808481526020018373ffffffffffffffffffffffffffffffffffffffff1673ffffffffffffffffffffffffffffffffffffffff168152602001828152602001935050505060405180910390a38192505050949350505050565b600a81565b806001600082815260200190815260200160002060010160009054906101000a900460ff16151561232f57600080fd5b6123398233612cc8565b5050565b600660009054906101000a900460ff1681565b600060016000838152602001908152602001600020600201549050919050565b60078054600181600116156101000203166002900480601f0160208091040260200160405190810160405280929190818152602001828054600181600116156101000203166002900480156124065780601f106123db57610100808354040283529160200191612406565b820191906000526020600020905b8154815290600101906020018083116123e957829003601f168201915b505050505081565b600060016000848152602001908152602001600020600501600083815260200190815260200160002054905092915050565b60026020528060005260406000206000915054906101000a900473ffffffffffffffffffffffffffffffffffffffff1681565b60006001600083815260200190815260200160002060010160009054906101000a900460ff169050919050565b6000816001600082815260200190815260200160002060010160009054906101000a900460ff1615156124d257600080fd5b6124db83612ea5565b915050919050565b60006124ed613478565b600e600085815260200190815260200160002061014060405190810160405290816000820160009054906101000a900460ff16600281111561252b57fe5b600281111561253657fe5b8152602001600182015481526020016002820160009054906101000a900473ffffffffffffffffffffffffffffffffffffffff1673ffffffffffffffffffffffffffffffffffffffff1673ffffffffffffffffffffffffffffffffffffffff16815260200160038201548152602001600482018054600181600116156101000203166002900480601f01602080910402602001604051908101604052809291908181526020018280546001816001161561010002031660029004801561263d5780601f106126125761010080835404028352916020019161263d565b820191906000526020600020905b81548152906001019060200180831161262057829003601f168201915b5050505050815260200160058201548152602001600682015481526020016007820154815260200160088201548152602001600982018054600181600116156101000203166002900480601f0160208091040260200160405190810160405280929190818152602001828054600181600116156101000203166002900480156127075780601f106126dc57610100808354040283529160200191612707565b820191906000526020600020905b8154815290600101906020018083116126ea57829003601f168201915b50505050508152505090503373ffffffffffffffffffffffffffffffffffffffff16816040015173ffffffffffffffffffffffffffffffffffffffff1614151561275057600080fd5b42816101000181815250508281610120018190525080600e600086815260200190815260200160002060008201518160000160006101000a81548160ff0219169083600281111561279d57fe5b02179055506020820151816001015560408201518160020160006101000a81548173ffffffffffffffffffffffffffffffffffffffff021916908373ffffffffffffffffffffffffffffffffffffffff160217905550606082015181600301556080820151816004019080519060200190612819929190613589565b5060a0820151816005015560c0820151816006015560e082015181600701556101008201518160080155610120820151816009019080519060200190612860929190613589565b50905050600061286e61323f565b9050846012600083815260200190815260200160002081905550809250505092915050565b600080600160008781526020019081526020016000209050806002015484111515156128be57600080fd5b60008160010160019054906101000a900473ffffffffffffffffffffffffffffffffffffffff1673ffffffffffffffffffffffffffffffffffffffff16639588378e87896040518363ffffffff167c0100000000000000000000000000000000000000000000000000000000028152600401808373ffffffffffffffffffffffffffffffffffffffff1673ffffffffffffffffffffffffffffffffffffffff1681526020018281526020019250505060206040518083038186803b15801561298557600080fd5b505afa158015612999573d6000803e3d6000fd5b505050506040513d60208110156129af57600080fd5b81019080805190602001909291905050509050600081111515612a3a576040517f08c379a000000000000000000000000000000000000000000000000000000000815260040180806020018281038252601b8152602001807f5f766f746572206d75737420686176652072657075746174696f6e000000000081525060200191505060405180910390fd5b838110151515612a4957600080fd5b60008490506000811415612a5b578190505b60008360060160008973ffffffffffffffffffffffffffffffffffffffff1673ffffffffffffffffffffffffffffffffffffffff16815260200190815260200160002060010154141515612ab457612ab38888612cc8565b5b612adc8360050160008881526020019081526020016000205482612ca790919063ffffffff16565b83600501600088815260200190815260200160002081905550612b0c836004015482612ca790919063ffffffff16565b83600401819055506040805190810160405280878152602001828152508360060160008973ffffffffffffffffffffffffffffffffffffffff1673ffffffffffffffffffffffffffffffffffffffff16815260200190815260200160002060008201518160000155602082015181600101559050508673ffffffffffffffffffffffffffffffffffffffff16600260008560000154815260200190815260200160002060009054906101000a900473ffffffffffffffffffffffffffffffffffffffff1673ffffffffffffffffffffffffffffffffffffffff16897f066c061a3792cb3eb64a441a928655fcbafb4a54b49725fe9cd2951df5e7189e8985604051808381526020018281526020019250505060405180910390a4877fe715e19c865cb724f3c292cc2fffc24d9cdd398e179fb366f008cc73028e1c523373ffffffffffffffffffffffffffffffffffffffff168973ffffffffffffffffffffffffffffffffffffffff161415604051808215151515815260200191505060405180910390a2612c9a88612ea5565b9350505050949350505050565b6000808284019050838110151515612cbe57600080fd5b8091505092915050565b6000600160008481526020019081526020016000209050612ce761353f565b8160060160008473ffffffffffffffffffffffffffffffffffffffff1673ffffffffffffffffffffffffffffffffffffffff168152602001908152602001600020604080519081016040529081600082015481526020016001820154815250509050612d798160200151836005016000846000015181526020019081526020016000205461339090919063ffffffff16565b8260050160008360000151815260200190815260200160002081905550612db18160200151836004015461339090919063ffffffff16565b82600401819055508160060160008473ffffffffffffffffffffffffffffffffffffffff1673ffffffffffffffffffffffffffffffffffffffff168152602001908152602001600020600080820160009055600182016000905550508273ffffffffffffffffffffffffffffffffffffffff16600260008460000154815260200190815260200160002060009054906101000a900473ffffffffffffffffffffffffffffffffffffffff1673ffffffffffffffffffffffffffffffffffffffff16857f0ecab23267930de581498fac1af19a95c888ec6583921ee9c47473e16245d3c860405160405180910390a450505050565b6000816001600082815260200190815260200160002060010160009054906101000a900460ff161515612ed757600080fd5b600060016000858152602001908152602001600020905060008160010160019054906101000a900473ffffffffffffffffffffffffffffffffffffffff1673ffffffffffffffffffffffffffffffffffffffff1663b551c373866040518263ffffffff167c01000000000000000000000000000000000000000000000000000000000281526004018082815260200191505060206040518083038186803b158015612f8157600080fd5b505afa158015612f95573d6000803e3d6000fd5b505050506040513d6020811015612fab57600080fd5b8101908080519060200190929190505050905060008060008460030154815260200190815260200160002060000154905060008090505b8360020154811115156132305781606484811515612ffc57fe5b040284600501600083815260200190815260200160002054111561322357613022613609565b8460c06040519081016040529081600082015481526020016001820160009054906101000a900460ff161515151581526020016001820160019054906101000a900473ffffffffffffffffffffffffffffffffffffffff1673ffffffffffffffffffffffffffffffffffffffff1673ffffffffffffffffffffffffffffffffffffffff168152602001600282015481526020016003820154815260200160048201548152505090506130d3886133b2565b600260008260000151815260200190815260200160002060009054906101000a900473ffffffffffffffffffffffffffffffffffffffff1673ffffffffffffffffffffffffffffffffffffffff16887f37471b9c9d295ffb1309ad070b8964700bfb7b555e8e8292d0b6cbc7dba35d108487604051808381526020018281526020019250505060405180910390a3806040015173ffffffffffffffffffffffffffffffffffffffff16639d4c162d89846040518363ffffffff167c01000000000000000000000000000000000000000000000000000000000281526004018083815260200182815260200192505050602060405180830381600087803b1580156131dc57600080fd5b505af11580156131f0573d6000803e3d6000fd5b505050506040513d602081101561320657600080fd5b810190808051906020019092919050505096505050505050613239565b8080600101915050612fe2565b50600094505050505b50919050565b600080600190506000600460009054906101000a900473ffffffffffffffffffffffffffffffffffffffff1673ffffffffffffffffffffffffffffffffffffffff166388737b5e8360055433306040518563ffffffff167c0100000000000000000000000000000000000000000000000000000000028152600401808581526020018481526020018373ffffffffffffffffffffffffffffffffffffffff1673ffffffffffffffffffffffffffffffffffffffff1681526020018273ffffffffffffffffffffffffffffffffffffffff1673ffffffffffffffffffffffffffffffffffffffff168152602001945050505050602060405180830381600087803b15801561334b57600080fd5b505af115801561335f573d6000803e3d6000fd5b505050506040513d602081101561337557600080fd5b81019080805190602001909291905050509050809250505090565b60008282111515156133a157600080fd5b600082840390508091505092915050565b600060016000838152602001908152602001600020905060008090505b816002015481111515613402578160050160008281526020019081526020016000206000905580806001019150506133cf565b50600160008381526020019081526020016000206000808201600090556001820160006101000a81549060ff02191690556001820160016101000a81549073ffffffffffffffffffffffffffffffffffffffff021916905560028201600090556003820160009055600482016000905550505050565b610140604051908101604052806000600281111561349257fe5b815260200160008019168152602001600073ffffffffffffffffffffffffffffffffffffffff168152602001600081526020016060815260200160008152602001600081526020016000815260200160008152602001606081525090565b60c060405190810160405280600073ffffffffffffffffffffffffffffffffffffffff168152602001606081526020016060815260200160008152602001600015158152602001600081525090565b604080519081016040528060008152602001600081525090565b604080519081016040528060008152602001600073ffffffffffffffffffffffffffffffffffffffff1681525090565b828054600181600116156101000203166002900490600052602060002090601f016020900481019282601f106135ca57805160ff19168380011785556135f8565b828001600101855582156135f8579182015b828111156135f75782518255916020019190600101906135dc565b5b509050613605919061365e565b5090565b60c06040519081016040528060008019168152602001600015158152602001600073ffffffffffffffffffffffffffffffffffffffff1681526020016000815260200160008019168152602001600081525090565b61368091905b8082111561367c576000816000905550600101613664565b5090565b9056fea165627a7a723058207da667dca502de309225f599d53087c2a489b7f35b8d66c31f9650d1dbd7b1e20029a165627a7a72305820ac300a9d481a20ec7e09fc4ebc74b88bc4238eba0d5de9d2098f8aa4006815a70029",
  "source": "pragma solidity ^0.5.0;\n\nimport \"openzeppelin-solidity/contracts/math/SafeMath.sol\";\nimport \"./Project.sol\";\n\ncontract ProjectFactory {\n  using SafeMath for uint;\n\n  uint projectNum;\n  Project[] public projects;\n\n  struct Participant {\n    address ethAddress;\n    string legalName;\n    string githubUsername;\n    uint owes;\n    bool initialized;\n    // uint equityUnique;\n    // self sovereign ID ?\n  }\n\n  constructor () public {\n\n  }\n\n  event projectCreated (uint projectContractAddress_);\n\n  function createProject (\n    string memory _githubRepo,\n    address _adminRole,\n    string memory _adminName,\n    string memory _adminGithubUsername,\n    string memory _purpose,\n    address _voteInterface,\n    uint _votePercentage )\n  public returns\n    (uint)\n  {\n\n    Project newProject = new Project(\n      _githubRepo,\n      _adminRole,\n       _adminName,\n       _adminGithubUsername,\n       _purpose,\n       _voteInterface,\n       _votePercentage,\n       projectNum);\n\n    projects.push(newProject);\n    projectNum = projectNum + 1;\n\n    emit projectCreated(100);\n\n    return projectNum;\n\n  }\n\n}\n",
  "sourcePath": "/Users/iv/Code/projects/self-sovereign-organization/development/project/contracts/ProjectFactory.sol",
  "compiler": {
    "name": "solc",
    "version": "0.5.4+commit.9549d8ff.Emscripten.clang"
  },
  "schemaVersion": "3.0.1",
  "updatedAt": "2019-03-04T19:52:40.243Z",
  "devdoc": {
    "methods": {}
  },
  "userdoc": {
    "methods": {}
  }
}